{
  "contracts/Libraries/Seller.sol": {
    "Seller": {
      "abi": [
        {
          "inputs": [],
          "name": "GUARANTEE_AMOUNT",
          "outputs": [
            {
              "internalType": "uint256",
              "name": "",
              "type": "uint256"
            }
          ],
          "stateMutability": "view",
          "type": "function"
        },
        {
          "inputs": [],
          "name": "getGuaranteeFeeErrMsg",
          "outputs": [
            {
              "internalType": "string",
              "name": "message",
              "type": "string"
            }
          ],
          "stateMutability": "pure",
          "type": "function"
        }
      ],
      "evm": {
        "bytecode": {
          "linkReferences": {},
          "object": "610780610053600b82828239805160001a607314610046577f4e487b7100000000000000000000000000000000000000000000000000000000600052600060045260246000fd5b30600052607381538281f3fe730000000000000000000000000000000000000000301460806040526004361061004b5760003560e01c8063076395ae1461005057806346a9766a14610080578063e3a0ed531461009e575b600080fd5b61006a600480360381019061006591906102f0565b6100bc565b6040516100779190610442565b60405180910390f35b6100886100f9565b604051610095919061045d565b60405180910390f35b6100a6610129565b6040516100b3919061047f565b60405180910390f35b60008160030160179054906101000a900460ff1680156100e157506005826004015410155b156100ef57600190506100f4565b600090505b919050565b6060610105600561012e565b604051602001610115919061040a565b604051602081830303815290604052905090565b600581565b60606000821415610176576040518060400160405280600181526020017f300000000000000000000000000000000000000000000000000000000000000081525090506102d6565b600082905060005b600082146101a8578080610191906105cf565b915050600a826101a19190610517565b915061017e565b60008167ffffffffffffffff8111156101ea577f4e487b7100000000000000000000000000000000000000000000000000000000600052604160045260246000fd5b6040519080825280601f01601f19166020018201604052801561021c5781602001600182028036833780820191505090505b5090505b600085146102cf576001826102359190610548565b9150600a856102449190610618565b603061025091906104c1565b60f81b81838151811061028c577f4e487b7100000000000000000000000000000000000000000000000000000000600052603260045260246000fd5b60200101907effffffffffffffffffffffffffffffffffffffffffffffffffffffffffffff1916908160001a905350600a856102c89190610517565b9450610220565b8093505050505b919050565b6000813590506102ea81610733565b92915050565b60006020828403121561030257600080fd5b6000610310848285016102db565b91505092915050565b6103228161057c565b82525050565b60006103338261049a565b61033d81856104a5565b935061034d81856020860161059c565b610356816106a7565b840191505092915050565b600061036c8261049a565b61037681856104b6565b935061038681856020860161059c565b80840191505092915050565b600061039f6001836104b6565b91506103aa826106b8565b600182019050919050565b60006103c2600b836104b6565b91506103cd826106e1565b600b82019050919050565b60006103e5600f836104b6565b91506103f08261070a565b600f82019050919050565b61040481610592565b82525050565b6000610415826103b5565b91506104218284610361565b915061042c82610392565b9150610437826103d8565b915081905092915050565b60006020820190506104576000830184610319565b92915050565b600060208201905081810360008301526104778184610328565b905092915050565b600060208201905061049460008301846103fb565b92915050565b600081519050919050565b600082825260208201905092915050565b600081905092915050565b60006104cc82610592565b91506104d783610592565b9250827fffffffffffffffffffffffffffffffffffffffffffffffffffffffffffffffff0382111561050c5761050b610649565b5b828201905092915050565b600061052282610592565b915061052d83610592565b92508261053d5761053c610678565b5b828204905092915050565b600061055382610592565b915061055e83610592565b92508282101561057157610570610649565b5b828203905092915050565b60008115159050919050565b6000819050919050565b6000819050919050565b60005b838110156105ba57808201518184015260208101905061059f565b838111156105c9576000848401525b50505050565b60006105da82610592565b91507fffffffffffffffffffffffffffffffffffffffffffffffffffffffffffffffff82141561060d5761060c610649565b5b600182019050919050565b600061062382610592565b915061062e83610592565b92508261063e5761063d610678565b5b828206905092915050565b7f4e487b7100000000000000000000000000000000000000000000000000000000600052601160045260246000fd5b7f4e487b7100000000000000000000000000000000000000000000000000000000600052601260045260246000fd5b6000601f19601f8301169050919050565b7f2000000000000000000000000000000000000000000000000000000000000000600082015250565b7f506c656173652050617920000000000000000000000000000000000000000000600082015250565b7f45746820546f2052656769737465720000000000000000000000000000000000600082015250565b61073c81610588565b811461074757600080fd5b5056fea2646970667358221220b4d3ce02482dcaf8be8b46b0036d42ad24e3794c5713ea8d52a600c76f74b20764736f6c63430008040033",
          "opcodes": "PUSH2 0x780 PUSH2 0x53 PUSH1 0xB DUP3 DUP3 DUP3 CODECOPY DUP1 MLOAD PUSH1 0x0 BYTE PUSH1 0x73 EQ PUSH2 0x46 JUMPI PUSH32 0x4E487B7100000000000000000000000000000000000000000000000000000000 PUSH1 0x0 MSTORE PUSH1 0x0 PUSH1 0x4 MSTORE PUSH1 0x24 PUSH1 0x0 REVERT JUMPDEST ADDRESS PUSH1 0x0 MSTORE PUSH1 0x73 DUP2 MSTORE8 DUP3 DUP2 RETURN INVALID PUSH20 0x0 ADDRESS EQ PUSH1 0x80 PUSH1 0x40 MSTORE PUSH1 0x4 CALLDATASIZE LT PUSH2 0x4B JUMPI PUSH1 0x0 CALLDATALOAD PUSH1 0xE0 SHR DUP1 PUSH4 0x76395AE EQ PUSH2 0x50 JUMPI DUP1 PUSH4 0x46A9766A EQ PUSH2 0x80 JUMPI DUP1 PUSH4 0xE3A0ED53 EQ PUSH2 0x9E JUMPI JUMPDEST PUSH1 0x0 DUP1 REVERT JUMPDEST PUSH2 0x6A PUSH1 0x4 DUP1 CALLDATASIZE SUB DUP2 ADD SWAP1 PUSH2 0x65 SWAP2 SWAP1 PUSH2 0x2F0 JUMP JUMPDEST PUSH2 0xBC JUMP JUMPDEST PUSH1 0x40 MLOAD PUSH2 0x77 SWAP2 SWAP1 PUSH2 0x442 JUMP JUMPDEST PUSH1 0x40 MLOAD DUP1 SWAP2 SUB SWAP1 RETURN JUMPDEST PUSH2 0x88 PUSH2 0xF9 JUMP JUMPDEST PUSH1 0x40 MLOAD PUSH2 0x95 SWAP2 SWAP1 PUSH2 0x45D JUMP JUMPDEST PUSH1 0x40 MLOAD DUP1 SWAP2 SUB SWAP1 RETURN JUMPDEST PUSH2 0xA6 PUSH2 0x129 JUMP JUMPDEST PUSH1 0x40 MLOAD PUSH2 0xB3 SWAP2 SWAP1 PUSH2 0x47F JUMP JUMPDEST PUSH1 0x40 MLOAD DUP1 SWAP2 SUB SWAP1 RETURN JUMPDEST PUSH1 0x0 DUP2 PUSH1 0x3 ADD PUSH1 0x17 SWAP1 SLOAD SWAP1 PUSH2 0x100 EXP SWAP1 DIV PUSH1 0xFF AND DUP1 ISZERO PUSH2 0xE1 JUMPI POP PUSH1 0x5 DUP3 PUSH1 0x4 ADD SLOAD LT ISZERO JUMPDEST ISZERO PUSH2 0xEF JUMPI PUSH1 0x1 SWAP1 POP PUSH2 0xF4 JUMP JUMPDEST PUSH1 0x0 SWAP1 POP JUMPDEST SWAP2 SWAP1 POP JUMP JUMPDEST PUSH1 0x60 PUSH2 0x105 PUSH1 0x5 PUSH2 0x12E JUMP JUMPDEST PUSH1 0x40 MLOAD PUSH1 0x20 ADD PUSH2 0x115 SWAP2 SWAP1 PUSH2 0x40A JUMP JUMPDEST PUSH1 0x40 MLOAD PUSH1 0x20 DUP2 DUP4 SUB SUB DUP2 MSTORE SWAP1 PUSH1 0x40 MSTORE SWAP1 POP SWAP1 JUMP JUMPDEST PUSH1 0x5 DUP2 JUMP JUMPDEST PUSH1 0x60 PUSH1 0x0 DUP3 EQ ISZERO PUSH2 0x176 JUMPI PUSH1 0x40 MLOAD DUP1 PUSH1 0x40 ADD PUSH1 0x40 MSTORE DUP1 PUSH1 0x1 DUP2 MSTORE PUSH1 0x20 ADD PUSH32 0x3000000000000000000000000000000000000000000000000000000000000000 DUP2 MSTORE POP SWAP1 POP PUSH2 0x2D6 JUMP JUMPDEST PUSH1 0x0 DUP3 SWAP1 POP PUSH1 0x0 JUMPDEST PUSH1 0x0 DUP3 EQ PUSH2 0x1A8 JUMPI DUP1 DUP1 PUSH2 0x191 SWAP1 PUSH2 0x5CF JUMP JUMPDEST SWAP2 POP POP PUSH1 0xA DUP3 PUSH2 0x1A1 SWAP2 SWAP1 PUSH2 0x517 JUMP JUMPDEST SWAP2 POP PUSH2 0x17E JUMP JUMPDEST PUSH1 0x0 DUP2 PUSH8 0xFFFFFFFFFFFFFFFF DUP2 GT ISZERO PUSH2 0x1EA JUMPI PUSH32 0x4E487B7100000000000000000000000000000000000000000000000000000000 PUSH1 0x0 MSTORE PUSH1 0x41 PUSH1 0x4 MSTORE PUSH1 0x24 PUSH1 0x0 REVERT JUMPDEST PUSH1 0x40 MLOAD SWAP1 DUP1 DUP3 MSTORE DUP1 PUSH1 0x1F ADD PUSH1 0x1F NOT AND PUSH1 0x20 ADD DUP3 ADD PUSH1 0x40 MSTORE DUP1 ISZERO PUSH2 0x21C JUMPI DUP2 PUSH1 0x20 ADD PUSH1 0x1 DUP3 MUL DUP1 CALLDATASIZE DUP4 CALLDATACOPY DUP1 DUP3 ADD SWAP2 POP POP SWAP1 POP JUMPDEST POP SWAP1 POP JUMPDEST PUSH1 0x0 DUP6 EQ PUSH2 0x2CF JUMPI PUSH1 0x1 DUP3 PUSH2 0x235 SWAP2 SWAP1 PUSH2 0x548 JUMP JUMPDEST SWAP2 POP PUSH1 0xA DUP6 PUSH2 0x244 SWAP2 SWAP1 PUSH2 0x618 JUMP JUMPDEST PUSH1 0x30 PUSH2 0x250 SWAP2 SWAP1 PUSH2 0x4C1 JUMP JUMPDEST PUSH1 0xF8 SHL DUP2 DUP4 DUP2 MLOAD DUP2 LT PUSH2 0x28C JUMPI PUSH32 0x4E487B7100000000000000000000000000000000000000000000000000000000 PUSH1 0x0 MSTORE PUSH1 0x32 PUSH1 0x4 MSTORE PUSH1 0x24 PUSH1 0x0 REVERT JUMPDEST PUSH1 0x20 ADD ADD SWAP1 PUSH31 0xFFFFFFFFFFFFFFFFFFFFFFFFFFFFFFFFFFFFFFFFFFFFFFFFFFFFFFFFFFFFFF NOT AND SWAP1 DUP2 PUSH1 0x0 BYTE SWAP1 MSTORE8 POP PUSH1 0xA DUP6 PUSH2 0x2C8 SWAP2 SWAP1 PUSH2 0x517 JUMP JUMPDEST SWAP5 POP PUSH2 0x220 JUMP JUMPDEST DUP1 SWAP4 POP POP POP POP JUMPDEST SWAP2 SWAP1 POP JUMP JUMPDEST PUSH1 0x0 DUP2 CALLDATALOAD SWAP1 POP PUSH2 0x2EA DUP2 PUSH2 0x733 JUMP JUMPDEST SWAP3 SWAP2 POP POP JUMP JUMPDEST PUSH1 0x0 PUSH1 0x20 DUP3 DUP5 SUB SLT ISZERO PUSH2 0x302 JUMPI PUSH1 0x0 DUP1 REVERT JUMPDEST PUSH1 0x0 PUSH2 0x310 DUP5 DUP3 DUP6 ADD PUSH2 0x2DB JUMP JUMPDEST SWAP2 POP POP SWAP3 SWAP2 POP POP JUMP JUMPDEST PUSH2 0x322 DUP2 PUSH2 0x57C JUMP JUMPDEST DUP3 MSTORE POP POP JUMP JUMPDEST PUSH1 0x0 PUSH2 0x333 DUP3 PUSH2 0x49A JUMP JUMPDEST PUSH2 0x33D DUP2 DUP6 PUSH2 0x4A5 JUMP JUMPDEST SWAP4 POP PUSH2 0x34D DUP2 DUP6 PUSH1 0x20 DUP7 ADD PUSH2 0x59C JUMP JUMPDEST PUSH2 0x356 DUP2 PUSH2 0x6A7 JUMP JUMPDEST DUP5 ADD SWAP2 POP POP SWAP3 SWAP2 POP POP JUMP JUMPDEST PUSH1 0x0 PUSH2 0x36C DUP3 PUSH2 0x49A JUMP JUMPDEST PUSH2 0x376 DUP2 DUP6 PUSH2 0x4B6 JUMP JUMPDEST SWAP4 POP PUSH2 0x386 DUP2 DUP6 PUSH1 0x20 DUP7 ADD PUSH2 0x59C JUMP JUMPDEST DUP1 DUP5 ADD SWAP2 POP POP SWAP3 SWAP2 POP POP JUMP JUMPDEST PUSH1 0x0 PUSH2 0x39F PUSH1 0x1 DUP4 PUSH2 0x4B6 JUMP JUMPDEST SWAP2 POP PUSH2 0x3AA DUP3 PUSH2 0x6B8 JUMP JUMPDEST PUSH1 0x1 DUP3 ADD SWAP1 POP SWAP2 SWAP1 POP JUMP JUMPDEST PUSH1 0x0 PUSH2 0x3C2 PUSH1 0xB DUP4 PUSH2 0x4B6 JUMP JUMPDEST SWAP2 POP PUSH2 0x3CD DUP3 PUSH2 0x6E1 JUMP JUMPDEST PUSH1 0xB DUP3 ADD SWAP1 POP SWAP2 SWAP1 POP JUMP JUMPDEST PUSH1 0x0 PUSH2 0x3E5 PUSH1 0xF DUP4 PUSH2 0x4B6 JUMP JUMPDEST SWAP2 POP PUSH2 0x3F0 DUP3 PUSH2 0x70A JUMP JUMPDEST PUSH1 0xF DUP3 ADD SWAP1 POP SWAP2 SWAP1 POP JUMP JUMPDEST PUSH2 0x404 DUP2 PUSH2 0x592 JUMP JUMPDEST DUP3 MSTORE POP POP JUMP JUMPDEST PUSH1 0x0 PUSH2 0x415 DUP3 PUSH2 0x3B5 JUMP JUMPDEST SWAP2 POP PUSH2 0x421 DUP3 DUP5 PUSH2 0x361 JUMP JUMPDEST SWAP2 POP PUSH2 0x42C DUP3 PUSH2 0x392 JUMP JUMPDEST SWAP2 POP PUSH2 0x437 DUP3 PUSH2 0x3D8 JUMP JUMPDEST SWAP2 POP DUP2 SWAP1 POP SWAP3 SWAP2 POP POP JUMP JUMPDEST PUSH1 0x0 PUSH1 0x20 DUP3 ADD SWAP1 POP PUSH2 0x457 PUSH1 0x0 DUP4 ADD DUP5 PUSH2 0x319 JUMP JUMPDEST SWAP3 SWAP2 POP POP JUMP JUMPDEST PUSH1 0x0 PUSH1 0x20 DUP3 ADD SWAP1 POP DUP2 DUP2 SUB PUSH1 0x0 DUP4 ADD MSTORE PUSH2 0x477 DUP2 DUP5 PUSH2 0x328 JUMP JUMPDEST SWAP1 POP SWAP3 SWAP2 POP POP JUMP JUMPDEST PUSH1 0x0 PUSH1 0x20 DUP3 ADD SWAP1 POP PUSH2 0x494 PUSH1 0x0 DUP4 ADD DUP5 PUSH2 0x3FB JUMP JUMPDEST SWAP3 SWAP2 POP POP JUMP JUMPDEST PUSH1 0x0 DUP2 MLOAD SWAP1 POP SWAP2 SWAP1 POP JUMP JUMPDEST PUSH1 0x0 DUP3 DUP3 MSTORE PUSH1 0x20 DUP3 ADD SWAP1 POP SWAP3 SWAP2 POP POP JUMP JUMPDEST PUSH1 0x0 DUP2 SWAP1 POP SWAP3 SWAP2 POP POP JUMP JUMPDEST PUSH1 0x0 PUSH2 0x4CC DUP3 PUSH2 0x592 JUMP JUMPDEST SWAP2 POP PUSH2 0x4D7 DUP4 PUSH2 0x592 JUMP JUMPDEST SWAP3 POP DUP3 PUSH32 0xFFFFFFFFFFFFFFFFFFFFFFFFFFFFFFFFFFFFFFFFFFFFFFFFFFFFFFFFFFFFFFFF SUB DUP3 GT ISZERO PUSH2 0x50C JUMPI PUSH2 0x50B PUSH2 0x649 JUMP JUMPDEST JUMPDEST DUP3 DUP3 ADD SWAP1 POP SWAP3 SWAP2 POP POP JUMP JUMPDEST PUSH1 0x0 PUSH2 0x522 DUP3 PUSH2 0x592 JUMP JUMPDEST SWAP2 POP PUSH2 0x52D DUP4 PUSH2 0x592 JUMP JUMPDEST SWAP3 POP DUP3 PUSH2 0x53D JUMPI PUSH2 0x53C PUSH2 0x678 JUMP JUMPDEST JUMPDEST DUP3 DUP3 DIV SWAP1 POP SWAP3 SWAP2 POP POP JUMP JUMPDEST PUSH1 0x0 PUSH2 0x553 DUP3 PUSH2 0x592 JUMP JUMPDEST SWAP2 POP PUSH2 0x55E DUP4 PUSH2 0x592 JUMP JUMPDEST SWAP3 POP DUP3 DUP3 LT ISZERO PUSH2 0x571 JUMPI PUSH2 0x570 PUSH2 0x649 JUMP JUMPDEST JUMPDEST DUP3 DUP3 SUB SWAP1 POP SWAP3 SWAP2 POP POP JUMP JUMPDEST PUSH1 0x0 DUP2 ISZERO ISZERO SWAP1 POP SWAP2 SWAP1 POP JUMP JUMPDEST PUSH1 0x0 DUP2 SWAP1 POP SWAP2 SWAP1 POP JUMP JUMPDEST PUSH1 0x0 DUP2 SWAP1 POP SWAP2 SWAP1 POP JUMP JUMPDEST PUSH1 0x0 JUMPDEST DUP4 DUP2 LT ISZERO PUSH2 0x5BA JUMPI DUP1 DUP3 ADD MLOAD DUP2 DUP5 ADD MSTORE PUSH1 0x20 DUP2 ADD SWAP1 POP PUSH2 0x59F JUMP JUMPDEST DUP4 DUP2 GT ISZERO PUSH2 0x5C9 JUMPI PUSH1 0x0 DUP5 DUP5 ADD MSTORE JUMPDEST POP POP POP POP JUMP JUMPDEST PUSH1 0x0 PUSH2 0x5DA DUP3 PUSH2 0x592 JUMP JUMPDEST SWAP2 POP PUSH32 0xFFFFFFFFFFFFFFFFFFFFFFFFFFFFFFFFFFFFFFFFFFFFFFFFFFFFFFFFFFFFFFFF DUP3 EQ ISZERO PUSH2 0x60D JUMPI PUSH2 0x60C PUSH2 0x649 JUMP JUMPDEST JUMPDEST PUSH1 0x1 DUP3 ADD SWAP1 POP SWAP2 SWAP1 POP JUMP JUMPDEST PUSH1 0x0 PUSH2 0x623 DUP3 PUSH2 0x592 JUMP JUMPDEST SWAP2 POP PUSH2 0x62E DUP4 PUSH2 0x592 JUMP JUMPDEST SWAP3 POP DUP3 PUSH2 0x63E JUMPI PUSH2 0x63D PUSH2 0x678 JUMP JUMPDEST JUMPDEST DUP3 DUP3 MOD SWAP1 POP SWAP3 SWAP2 POP POP JUMP JUMPDEST PUSH32 0x4E487B7100000000000000000000000000000000000000000000000000000000 PUSH1 0x0 MSTORE PUSH1 0x11 PUSH1 0x4 MSTORE PUSH1 0x24 PUSH1 0x0 REVERT JUMPDEST PUSH32 0x4E487B7100000000000000000000000000000000000000000000000000000000 PUSH1 0x0 MSTORE PUSH1 0x12 PUSH1 0x4 MSTORE PUSH1 0x24 PUSH1 0x0 REVERT JUMPDEST PUSH1 0x0 PUSH1 0x1F NOT PUSH1 0x1F DUP4 ADD AND SWAP1 POP SWAP2 SWAP1 POP JUMP JUMPDEST PUSH32 0x2000000000000000000000000000000000000000000000000000000000000000 PUSH1 0x0 DUP3 ADD MSTORE POP JUMP JUMPDEST PUSH32 0x506C656173652050617920000000000000000000000000000000000000000000 PUSH1 0x0 DUP3 ADD MSTORE POP JUMP JUMPDEST PUSH32 0x45746820546F2052656769737465720000000000000000000000000000000000 PUSH1 0x0 DUP3 ADD MSTORE POP JUMP JUMPDEST PUSH2 0x73C DUP2 PUSH2 0x588 JUMP JUMPDEST DUP2 EQ PUSH2 0x747 JUMPI PUSH1 0x0 DUP1 REVERT JUMPDEST POP JUMP INVALID LOG2 PUSH5 0x6970667358 0x22 SLT KECCAK256 0xB4 0xD3 0xCE MUL 0x48 0x2D 0xCA 0xF8 0xBE DUP12 CHAINID 0xB0 SUB PUSH14 0x42AD24E3794C5713EA8D52A600C7 PUSH16 0x74B20764736F6C634300080400330000 "
        },
        "methodIdentifiers": {
          "GUARANTEE_AMOUNT()": "e3a0ed53",
          "getGuaranteeFeeErrMsg()": "46a9766a",
          "hasPaidGurantee(Seller.SellerStruct storage)": "076395ae"
        }
      }
    }
  }
}