{
  "_format": "hh-sol-artifact-1",
  "contractName": "Seller",
  "sourceName": "contracts/Libraries/Seller.sol",
  "abi": [
    {
      "inputs": [],
      "name": "GUARANTEE_AMOUNT",
      "outputs": [
        {
          "internalType": "uint256",
          "name": "",
          "type": "uint256"
        }
      ],
      "stateMutability": "view",
      "type": "function"
    },
    {
      "inputs": [],
      "name": "getGuaranteeFeeErrMsg",
      "outputs": [
        {
          "internalType": "string",
          "name": "message",
          "type": "string"
        }
      ],
      "stateMutability": "pure",
      "type": "function"
    }
  ],
  "bytecode": "0x610780610053600b82828239805160001a607314610046577f4e487b7100000000000000000000000000000000000000000000000000000000600052600060045260246000fd5b30600052607381538281f3fe730000000000000000000000000000000000000000301460806040526004361061004b5760003560e01c8063076395ae1461005057806346a9766a14610080578063e3a0ed531461009e575b600080fd5b61006a600480360381019061006591906102f0565b6100bc565b6040516100779190610442565b60405180910390f35b6100886100f9565b604051610095919061045d565b60405180910390f35b6100a6610129565b6040516100b3919061047f565b60405180910390f35b60008160030160179054906101000a900460ff1680156100e157506005826004015410155b156100ef57600190506100f4565b600090505b919050565b6060610105600561012e565b604051602001610115919061040a565b604051602081830303815290604052905090565b600581565b60606000821415610176576040518060400160405280600181526020017f300000000000000000000000000000000000000000000000000000000000000081525090506102d6565b600082905060005b600082146101a8578080610191906105cf565b915050600a826101a19190610517565b915061017e565b60008167ffffffffffffffff8111156101ea577f4e487b7100000000000000000000000000000000000000000000000000000000600052604160045260246000fd5b6040519080825280601f01601f19166020018201604052801561021c5781602001600182028036833780820191505090505b5090505b600085146102cf576001826102359190610548565b9150600a856102449190610618565b603061025091906104c1565b60f81b81838151811061028c577f4e487b7100000000000000000000000000000000000000000000000000000000600052603260045260246000fd5b60200101907effffffffffffffffffffffffffffffffffffffffffffffffffffffffffffff1916908160001a905350600a856102c89190610517565b9450610220565b8093505050505b919050565b6000813590506102ea81610733565b92915050565b60006020828403121561030257600080fd5b6000610310848285016102db565b91505092915050565b6103228161057c565b82525050565b60006103338261049a565b61033d81856104a5565b935061034d81856020860161059c565b610356816106a7565b840191505092915050565b600061036c8261049a565b61037681856104b6565b935061038681856020860161059c565b80840191505092915050565b600061039f6001836104b6565b91506103aa826106b8565b600182019050919050565b60006103c2600b836104b6565b91506103cd826106e1565b600b82019050919050565b60006103e5600f836104b6565b91506103f08261070a565b600f82019050919050565b61040481610592565b82525050565b6000610415826103b5565b91506104218284610361565b915061042c82610392565b9150610437826103d8565b915081905092915050565b60006020820190506104576000830184610319565b92915050565b600060208201905081810360008301526104778184610328565b905092915050565b600060208201905061049460008301846103fb565b92915050565b600081519050919050565b600082825260208201905092915050565b600081905092915050565b60006104cc82610592565b91506104d783610592565b9250827fffffffffffffffffffffffffffffffffffffffffffffffffffffffffffffffff0382111561050c5761050b610649565b5b828201905092915050565b600061052282610592565b915061052d83610592565b92508261053d5761053c610678565b5b828204905092915050565b600061055382610592565b915061055e83610592565b92508282101561057157610570610649565b5b828203905092915050565b60008115159050919050565b6000819050919050565b6000819050919050565b60005b838110156105ba57808201518184015260208101905061059f565b838111156105c9576000848401525b50505050565b60006105da82610592565b91507fffffffffffffffffffffffffffffffffffffffffffffffffffffffffffffffff82141561060d5761060c610649565b5b600182019050919050565b600061062382610592565b915061062e83610592565b92508261063e5761063d610678565b5b828206905092915050565b7f4e487b7100000000000000000000000000000000000000000000000000000000600052601160045260246000fd5b7f4e487b7100000000000000000000000000000000000000000000000000000000600052601260045260246000fd5b6000601f19601f8301169050919050565b7f2000000000000000000000000000000000000000000000000000000000000000600082015250565b7f506c656173652050617920000000000000000000000000000000000000000000600082015250565b7f45746820546f2052656769737465720000000000000000000000000000000000600082015250565b61073c81610588565b811461074757600080fd5b5056fea2646970667358221220b4d3ce02482dcaf8be8b46b0036d42ad24e3794c5713ea8d52a600c76f74b20764736f6c63430008040033",
  "linkReferences": {},
  "deployedLinkReferences": {}
}