{
  "_format": "hh-sol-artifact-1",
  "contractName": "Ecomm",
  "sourceName": "contracts/Ecomm.sol",
  "abi": [
    {
      "inputs": [
        {
          "internalType": "address",
          "name": "_owner",
          "type": "address"
        },
        {
          "internalType": "address",
          "name": "_escrowAccountAddress",
          "type": "address"
        }
      ],
      "stateMutability": "nonpayable",
      "type": "constructor"
    },
    {
      "inputs": [
        {
          "internalType": "string",
          "name": "parentId",
          "type": "string"
        },
        {
          "internalType": "string",
          "name": "id",
          "type": "string"
        },
        {
          "internalType": "string",
          "name": "sku",
          "type": "string"
        },
        {
          "internalType": "uint256",
          "name": "inStock",
          "type": "uint256"
        },
        {
          "internalType": "string",
          "name": "supplierId",
          "type": "string"
        },
        {
          "internalType": "string",
          "name": "metaDataURI",
          "type": "string"
        },
        {
          "internalType": "uint256",
          "name": "supplierPrice",
          "type": "uint256"
        },
        {
          "internalType": "uint256",
          "name": "merchantPrice",
          "type": "uint256"
        }
      ],
      "name": "addChildProduct",
      "outputs": [
        {
          "internalType": "bool",
          "name": "isCreated",
          "type": "bool"
        }
      ],
      "stateMutability": "nonpayable",
      "type": "function"
    },
    {
      "inputs": [
        {
          "internalType": "string",
          "name": "id",
          "type": "string"
        },
        {
          "internalType": "string",
          "name": "sku",
          "type": "string"
        },
        {
          "internalType": "uint256",
          "name": "inStock",
          "type": "uint256"
        },
        {
          "internalType": "string",
          "name": "supplierId",
          "type": "string"
        },
        {
          "internalType": "string",
          "name": "metaDataURI",
          "type": "string"
        },
        {
          "internalType": "uint256",
          "name": "supplierPrice",
          "type": "uint256"
        },
        {
          "internalType": "uint256",
          "name": "merchantPrice",
          "type": "uint256"
        }
      ],
      "name": "addProduct",
      "outputs": [
        {
          "internalType": "bool",
          "name": "isCreated",
          "type": "bool"
        }
      ],
      "stateMutability": "nonpayable",
      "type": "function"
    },
    {
      "inputs": [
        {
          "internalType": "string",
          "name": "cartId",
          "type": "string"
        },
        {
          "internalType": "string",
          "name": "productId",
          "type": "string"
        }
      ],
      "name": "addToCart",
      "outputs": [
        {
          "internalType": "bool",
          "name": "hasAdded",
          "type": "bool"
        }
      ],
      "stateMutability": "nonpayable",
      "type": "function"
    },
    {
      "inputs": [
        {
          "internalType": "string",
          "name": "orderId",
          "type": "string"
        },
        {
          "internalType": "string",
          "name": "url",
          "type": "string"
        }
      ],
      "name": "addTrackingUrl",
      "outputs": [],
      "stateMutability": "nonpayable",
      "type": "function"
    },
    {
      "inputs": [
        {
          "internalType": "string",
          "name": "",
          "type": "string"
        }
      ],
      "name": "buyerCart",
      "outputs": [
        {
          "internalType": "string",
          "name": "cartId",
          "type": "string"
        },
        {
          "internalType": "string",
          "name": "buyerId",
          "type": "string"
        },
        {
          "internalType": "bool",
          "name": "orderProcessed",
          "type": "bool"
        },
        {
          "internalType": "bool",
          "name": "isActive",
          "type": "bool"
        }
      ],
      "stateMutability": "view",
      "type": "function"
    },
    {
      "inputs": [
        {
          "internalType": "uint256",
          "name": "",
          "type": "uint256"
        }
      ],
      "name": "buyerIds",
      "outputs": [
        {
          "internalType": "string",
          "name": "",
          "type": "string"
        }
      ],
      "stateMutability": "view",
      "type": "function"
    },
    {
      "inputs": [
        {
          "internalType": "string",
          "name": "",
          "type": "string"
        },
        {
          "internalType": "uint256",
          "name": "",
          "type": "uint256"
        }
      ],
      "name": "buyerOrders",
      "outputs": [
        {
          "internalType": "string",
          "name": "",
          "type": "string"
        }
      ],
      "stateMutability": "view",
      "type": "function"
    },
    {
      "inputs": [
        {
          "internalType": "string",
          "name": "",
          "type": "string"
        }
      ],
      "name": "buyerOrdersCount",
      "outputs": [
        {
          "internalType": "uint256",
          "name": "",
          "type": "uint256"
        }
      ],
      "stateMutability": "view",
      "type": "function"
    },
    {
      "inputs": [
        {
          "internalType": "string",
          "name": "",
          "type": "string"
        }
      ],
      "name": "buyers",
      "outputs": [
        {
          "internalType": "string",
          "name": "id",
          "type": "string"
        },
        {
          "internalType": "string",
          "name": "name",
          "type": "string"
        },
        {
          "internalType": "string",
          "name": "email",
          "type": "string"
        },
        {
          "internalType": "address",
          "name": "buyerAddress",
          "type": "address"
        },
        {
          "internalType": "bool",
          "name": "isActive",
          "type": "bool"
        }
      ],
      "stateMutability": "view",
      "type": "function"
    },
    {
      "inputs": [],
      "name": "buyersCount",
      "outputs": [
        {
          "internalType": "uint256",
          "name": "",
          "type": "uint256"
        }
      ],
      "stateMutability": "view",
      "type": "function"
    },
    {
      "inputs": [
        {
          "internalType": "string",
          "name": "",
          "type": "string"
        },
        {
          "internalType": "uint256",
          "name": "",
          "type": "uint256"
        }
      ],
      "name": "cartProducts",
      "outputs": [
        {
          "internalType": "string",
          "name": "id",
          "type": "string"
        },
        {
          "internalType": "string",
          "name": "sku",
          "type": "string"
        },
        {
          "internalType": "uint256",
          "name": "inStock",
          "type": "uint256"
        },
        {
          "internalType": "string",
          "name": "supplierId",
          "type": "string"
        },
        {
          "internalType": "string",
          "name": "metaDataURI",
          "type": "string"
        },
        {
          "internalType": "uint256",
          "name": "supplierPrice",
          "type": "uint256"
        },
        {
          "internalType": "uint256",
          "name": "merchantPrice",
          "type": "uint256"
        },
        {
          "internalType": "bool",
          "name": "isActive",
          "type": "bool"
        }
      ],
      "stateMutability": "view",
      "type": "function"
    },
    {
      "inputs": [
        {
          "internalType": "string",
          "name": "",
          "type": "string"
        }
      ],
      "name": "cartProductsCount",
      "outputs": [
        {
          "internalType": "uint256",
          "name": "",
          "type": "uint256"
        }
      ],
      "stateMutability": "view",
      "type": "function"
    },
    {
      "inputs": [
        {
          "internalType": "string",
          "name": "",
          "type": "string"
        }
      ],
      "name": "carts",
      "outputs": [
        {
          "internalType": "string",
          "name": "cartId",
          "type": "string"
        },
        {
          "internalType": "string",
          "name": "buyerId",
          "type": "string"
        },
        {
          "internalType": "bool",
          "name": "orderProcessed",
          "type": "bool"
        },
        {
          "internalType": "bool",
          "name": "isActive",
          "type": "bool"
        }
      ],
      "stateMutability": "view",
      "type": "function"
    },
    {
      "inputs": [
        {
          "internalType": "string",
          "name": "orderId",
          "type": "string"
        },
        {
          "internalType": "string",
          "name": "buyerId",
          "type": "string"
        },
        {
          "internalType": "string",
          "name": "cartId",
          "type": "string"
        },
        {
          "internalType": "uint256",
          "name": "totalPaid",
          "type": "uint256"
        }
      ],
      "name": "checkout",
      "outputs": [
        {
          "internalType": "bool",
          "name": "orderProcessed",
          "type": "bool"
        }
      ],
      "stateMutability": "payable",
      "type": "function"
    },
    {
      "inputs": [
        {
          "internalType": "string",
          "name": "",
          "type": "string"
        },
        {
          "internalType": "uint256",
          "name": "",
          "type": "uint256"
        }
      ],
      "name": "childMatrixItems",
      "outputs": [
        {
          "internalType": "string",
          "name": "id",
          "type": "string"
        },
        {
          "internalType": "string",
          "name": "sku",
          "type": "string"
        },
        {
          "internalType": "uint256",
          "name": "inStock",
          "type": "uint256"
        },
        {
          "internalType": "string",
          "name": "supplierId",
          "type": "string"
        },
        {
          "internalType": "string",
          "name": "metaDataURI",
          "type": "string"
        },
        {
          "internalType": "uint256",
          "name": "supplierPrice",
          "type": "uint256"
        },
        {
          "internalType": "uint256",
          "name": "merchantPrice",
          "type": "uint256"
        },
        {
          "internalType": "bool",
          "name": "isActive",
          "type": "bool"
        }
      ],
      "stateMutability": "view",
      "type": "function"
    },
    {
      "inputs": [],
      "name": "escrowAccountAddress",
      "outputs": [
        {
          "internalType": "address",
          "name": "",
          "type": "address"
        }
      ],
      "stateMutability": "view",
      "type": "function"
    },
    {
      "inputs": [
        {
          "internalType": "string",
          "name": "buyerId",
          "type": "string"
        },
        {
          "internalType": "uint256",
          "name": "index",
          "type": "uint256"
        }
      ],
      "name": "getBuyerOrderByIdx",
      "outputs": [
        {
          "components": [
            {
              "internalType": "string",
              "name": "orderId",
              "type": "string"
            },
            {
              "internalType": "string",
              "name": "buyerId",
              "type": "string"
            },
            {
              "internalType": "string",
              "name": "cartId",
              "type": "string"
            },
            {
              "internalType": "address",
              "name": "sender",
              "type": "address"
            },
            {
              "internalType": "enum Order.OrderStatus",
              "name": "orderStatus",
              "type": "uint8"
            },
            {
              "internalType": "uint256",
              "name": "totalPaid",
              "type": "uint256"
            },
            {
              "internalType": "bool",
              "name": "isCanceled",
              "type": "bool"
            },
            {
              "internalType": "bool",
              "name": "orderFulfilled",
              "type": "bool"
            },
            {
              "internalType": "bool",
              "name": "orderReturned",
              "type": "bool"
            },
            {
              "internalType": "bool",
              "name": "isOrderClosed",
              "type": "bool"
            },
            {
              "internalType": "bool",
              "name": "orderExists",
              "type": "bool"
            }
          ],
          "internalType": "struct Order.OrderStruct",
          "name": "order",
          "type": "tuple"
        }
      ],
      "stateMutability": "view",
      "type": "function"
    },
    {
      "inputs": [
        {
          "internalType": "string",
          "name": "cartId",
          "type": "string"
        },
        {
          "internalType": "uint256",
          "name": "index",
          "type": "uint256"
        }
      ],
      "name": "getCartProductId",
      "outputs": [
        {
          "components": [
            {
              "internalType": "string",
              "name": "id",
              "type": "string"
            },
            {
              "internalType": "string",
              "name": "sku",
              "type": "string"
            },
            {
              "internalType": "uint256",
              "name": "inStock",
              "type": "uint256"
            },
            {
              "internalType": "string",
              "name": "supplierId",
              "type": "string"
            },
            {
              "internalType": "string",
              "name": "metaDataURI",
              "type": "string"
            },
            {
              "internalType": "uint256",
              "name": "supplierPrice",
              "type": "uint256"
            },
            {
              "internalType": "uint256",
              "name": "merchantPrice",
              "type": "uint256"
            },
            {
              "internalType": "bool",
              "name": "isActive",
              "type": "bool"
            }
          ],
          "internalType": "struct Product.ProductStruct",
          "name": "product",
          "type": "tuple"
        }
      ],
      "stateMutability": "view",
      "type": "function"
    },
    {
      "inputs": [
        {
          "internalType": "string",
          "name": "sellerId",
          "type": "string"
        },
        {
          "internalType": "uint256",
          "name": "index",
          "type": "uint256"
        }
      ],
      "name": "getSellerProductByIdx",
      "outputs": [
        {
          "components": [
            {
              "internalType": "string",
              "name": "id",
              "type": "string"
            },
            {
              "internalType": "string",
              "name": "sku",
              "type": "string"
            },
            {
              "internalType": "uint256",
              "name": "inStock",
              "type": "uint256"
            },
            {
              "internalType": "string",
              "name": "supplierId",
              "type": "string"
            },
            {
              "internalType": "string",
              "name": "metaDataURI",
              "type": "string"
            },
            {
              "internalType": "uint256",
              "name": "supplierPrice",
              "type": "uint256"
            },
            {
              "internalType": "uint256",
              "name": "merchantPrice",
              "type": "uint256"
            },
            {
              "internalType": "bool",
              "name": "isActive",
              "type": "bool"
            }
          ],
          "internalType": "struct Product.ProductStruct",
          "name": "product",
          "type": "tuple"
        }
      ],
      "stateMutability": "view",
      "type": "function"
    },
    {
      "inputs": [
        {
          "internalType": "string",
          "name": "cartId",
          "type": "string"
        },
        {
          "internalType": "string",
          "name": "buyerId",
          "type": "string"
        }
      ],
      "name": "initializeBuyerCart",
      "outputs": [
        {
          "internalType": "bool",
          "name": "isInit",
          "type": "bool"
        }
      ],
      "stateMutability": "nonpayable",
      "type": "function"
    },
    {
      "inputs": [
        {
          "internalType": "uint256",
          "name": "",
          "type": "uint256"
        }
      ],
      "name": "merchants",
      "outputs": [
        {
          "internalType": "string",
          "name": "id",
          "type": "string"
        },
        {
          "internalType": "string",
          "name": "name",
          "type": "string"
        },
        {
          "internalType": "string",
          "name": "email",
          "type": "string"
        },
        {
          "internalType": "address",
          "name": "sellerAddress",
          "type": "address"
        },
        {
          "internalType": "bool",
          "name": "isSupplier",
          "type": "bool"
        },
        {
          "internalType": "bool",
          "name": "isActive",
          "type": "bool"
        },
        {
          "internalType": "bool",
          "name": "isRegistered",
          "type": "bool"
        },
        {
          "internalType": "bool",
          "name": "hasPaidGuarantee",
          "type": "bool"
        },
        {
          "internalType": "uint256",
          "name": "guranteePaid",
          "type": "uint256"
        }
      ],
      "stateMutability": "view",
      "type": "function"
    },
    {
      "inputs": [],
      "name": "merchantsCount",
      "outputs": [
        {
          "internalType": "uint256",
          "name": "",
          "type": "uint256"
        }
      ],
      "stateMutability": "view",
      "type": "function"
    },
    {
      "inputs": [
        {
          "internalType": "uint256",
          "name": "",
          "type": "uint256"
        }
      ],
      "name": "orderIds",
      "outputs": [
        {
          "internalType": "string",
          "name": "",
          "type": "string"
        }
      ],
      "stateMutability": "view",
      "type": "function"
    },
    {
      "inputs": [
        {
          "internalType": "string",
          "name": "",
          "type": "string"
        }
      ],
      "name": "orderTracking",
      "outputs": [
        {
          "internalType": "string",
          "name": "",
          "type": "string"
        }
      ],
      "stateMutability": "view",
      "type": "function"
    },
    {
      "inputs": [
        {
          "internalType": "string",
          "name": "",
          "type": "string"
        }
      ],
      "name": "orders",
      "outputs": [
        {
          "internalType": "string",
          "name": "orderId",
          "type": "string"
        },
        {
          "internalType": "string",
          "name": "buyerId",
          "type": "string"
        },
        {
          "internalType": "string",
          "name": "cartId",
          "type": "string"
        },
        {
          "internalType": "address",
          "name": "sender",
          "type": "address"
        },
        {
          "internalType": "enum Order.OrderStatus",
          "name": "orderStatus",
          "type": "uint8"
        },
        {
          "internalType": "uint256",
          "name": "totalPaid",
          "type": "uint256"
        },
        {
          "internalType": "bool",
          "name": "isCanceled",
          "type": "bool"
        },
        {
          "internalType": "bool",
          "name": "orderFulfilled",
          "type": "bool"
        },
        {
          "internalType": "bool",
          "name": "orderReturned",
          "type": "bool"
        },
        {
          "internalType": "bool",
          "name": "isOrderClosed",
          "type": "bool"
        },
        {
          "internalType": "bool",
          "name": "orderExists",
          "type": "bool"
        }
      ],
      "stateMutability": "view",
      "type": "function"
    },
    {
      "inputs": [],
      "name": "owner",
      "outputs": [
        {
          "internalType": "address",
          "name": "",
          "type": "address"
        }
      ],
      "stateMutability": "view",
      "type": "function"
    },
    {
      "inputs": [
        {
          "internalType": "uint256",
          "name": "",
          "type": "uint256"
        }
      ],
      "name": "productIds",
      "outputs": [
        {
          "internalType": "string",
          "name": "",
          "type": "string"
        }
      ],
      "stateMutability": "view",
      "type": "function"
    },
    {
      "inputs": [
        {
          "internalType": "string",
          "name": "",
          "type": "string"
        }
      ],
      "name": "products",
      "outputs": [
        {
          "internalType": "string",
          "name": "id",
          "type": "string"
        },
        {
          "internalType": "string",
          "name": "sku",
          "type": "string"
        },
        {
          "internalType": "uint256",
          "name": "inStock",
          "type": "uint256"
        },
        {
          "internalType": "string",
          "name": "supplierId",
          "type": "string"
        },
        {
          "internalType": "string",
          "name": "metaDataURI",
          "type": "string"
        },
        {
          "internalType": "uint256",
          "name": "supplierPrice",
          "type": "uint256"
        },
        {
          "internalType": "uint256",
          "name": "merchantPrice",
          "type": "uint256"
        },
        {
          "internalType": "bool",
          "name": "isActive",
          "type": "bool"
        }
      ],
      "stateMutability": "view",
      "type": "function"
    },
    {
      "inputs": [],
      "name": "productsCount",
      "outputs": [
        {
          "internalType": "uint256",
          "name": "",
          "type": "uint256"
        }
      ],
      "stateMutability": "view",
      "type": "function"
    },
    {
      "inputs": [
        {
          "internalType": "string",
          "name": "buyerId",
          "type": "string"
        },
        {
          "internalType": "string",
          "name": "name",
          "type": "string"
        },
        {
          "internalType": "string",
          "name": "email",
          "type": "string"
        },
        {
          "internalType": "string",
          "name": "cartId",
          "type": "string"
        }
      ],
      "name": "registerBuyer",
      "outputs": [
        {
          "internalType": "bool",
          "name": "isRegistered",
          "type": "bool"
        }
      ],
      "stateMutability": "nonpayable",
      "type": "function"
    },
    {
      "inputs": [
        {
          "internalType": "string",
          "name": "id",
          "type": "string"
        },
        {
          "internalType": "string",
          "name": "name",
          "type": "string"
        },
        {
          "internalType": "string",
          "name": "email",
          "type": "string"
        },
        {
          "internalType": "bool",
          "name": "isSupplier",
          "type": "bool"
        }
      ],
      "name": "registerSeller",
      "outputs": [
        {
          "internalType": "bool",
          "name": "hasRegistered",
          "type": "bool"
        }
      ],
      "stateMutability": "payable",
      "type": "function"
    },
    {
      "inputs": [
        {
          "internalType": "uint256",
          "name": "",
          "type": "uint256"
        }
      ],
      "name": "sellerIds",
      "outputs": [
        {
          "internalType": "string",
          "name": "",
          "type": "string"
        }
      ],
      "stateMutability": "view",
      "type": "function"
    },
    {
      "inputs": [
        {
          "internalType": "string",
          "name": "",
          "type": "string"
        },
        {
          "internalType": "uint256",
          "name": "",
          "type": "uint256"
        }
      ],
      "name": "sellerProductsMapping",
      "outputs": [
        {
          "internalType": "string",
          "name": "id",
          "type": "string"
        },
        {
          "internalType": "string",
          "name": "sku",
          "type": "string"
        },
        {
          "internalType": "uint256",
          "name": "inStock",
          "type": "uint256"
        },
        {
          "internalType": "string",
          "name": "supplierId",
          "type": "string"
        },
        {
          "internalType": "string",
          "name": "metaDataURI",
          "type": "string"
        },
        {
          "internalType": "uint256",
          "name": "supplierPrice",
          "type": "uint256"
        },
        {
          "internalType": "uint256",
          "name": "merchantPrice",
          "type": "uint256"
        },
        {
          "internalType": "bool",
          "name": "isActive",
          "type": "bool"
        }
      ],
      "stateMutability": "view",
      "type": "function"
    },
    {
      "inputs": [
        {
          "internalType": "string",
          "name": "",
          "type": "string"
        }
      ],
      "name": "sellers",
      "outputs": [
        {
          "internalType": "string",
          "name": "id",
          "type": "string"
        },
        {
          "internalType": "string",
          "name": "name",
          "type": "string"
        },
        {
          "internalType": "string",
          "name": "email",
          "type": "string"
        },
        {
          "internalType": "address",
          "name": "sellerAddress",
          "type": "address"
        },
        {
          "internalType": "bool",
          "name": "isSupplier",
          "type": "bool"
        },
        {
          "internalType": "bool",
          "name": "isActive",
          "type": "bool"
        },
        {
          "internalType": "bool",
          "name": "isRegistered",
          "type": "bool"
        },
        {
          "internalType": "bool",
          "name": "hasPaidGuarantee",
          "type": "bool"
        },
        {
          "internalType": "uint256",
          "name": "guranteePaid",
          "type": "uint256"
        }
      ],
      "stateMutability": "view",
      "type": "function"
    },
    {
      "inputs": [],
      "name": "sellersCount",
      "outputs": [
        {
          "internalType": "uint256",
          "name": "",
          "type": "uint256"
        }
      ],
      "stateMutability": "view",
      "type": "function"
    },
    {
      "inputs": [
        {
          "internalType": "uint256",
          "name": "",
          "type": "uint256"
        }
      ],
      "name": "suppliers",
      "outputs": [
        {
          "internalType": "string",
          "name": "id",
          "type": "string"
        },
        {
          "internalType": "string",
          "name": "name",
          "type": "string"
        },
        {
          "internalType": "string",
          "name": "email",
          "type": "string"
        },
        {
          "internalType": "address",
          "name": "sellerAddress",
          "type": "address"
        },
        {
          "internalType": "bool",
          "name": "isSupplier",
          "type": "bool"
        },
        {
          "internalType": "bool",
          "name": "isActive",
          "type": "bool"
        },
        {
          "internalType": "bool",
          "name": "isRegistered",
          "type": "bool"
        },
        {
          "internalType": "bool",
          "name": "hasPaidGuarantee",
          "type": "bool"
        },
        {
          "internalType": "uint256",
          "name": "guranteePaid",
          "type": "uint256"
        }
      ],
      "stateMutability": "view",
      "type": "function"
    },
    {
      "inputs": [],
      "name": "suppliersCount",
      "outputs": [
        {
          "internalType": "uint256",
          "name": "",
          "type": "uint256"
        }
      ],
      "stateMutability": "view",
      "type": "function"
    },
    {
      "inputs": [],
      "name": "totalOrders",
      "outputs": [
        {
          "internalType": "uint256",
          "name": "",
          "type": "uint256"
        }
      ],
      "stateMutability": "view",
      "type": "function"
    },
    {
      "inputs": [
        {
          "internalType": "string",
          "name": "orderId",
          "type": "string"
        },
        {
          "internalType": "uint256",
          "name": "status",
          "type": "uint256"
        }
      ],
      "name": "updateOrderStatus",
      "outputs": [
        {
          "internalType": "bool",
          "name": "isUpdated",
          "type": "bool"
        }
      ],
      "stateMutability": "nonpayable",
      "type": "function"
    }
  ],
  "bytecode": "0x60806040523480156200001157600080fd5b50604051620067c6380380620067c68339818101604052810190620000379190620000d7565b816000806101000a81548173ffffffffffffffffffffffffffffffffffffffff021916908373ffffffffffffffffffffffffffffffffffffffff16021790555080600160006101000a81548173ffffffffffffffffffffffffffffffffffffffff021916908373ffffffffffffffffffffffffffffffffffffffff160217905550505062000166565b600081519050620000d1816200014c565b92915050565b60008060408385031215620000eb57600080fd5b6000620000fb85828601620000c0565b92505060206200010e85828601620000c0565b9150509250929050565b600062000125826200012c565b9050919050565b600073ffffffffffffffffffffffffffffffffffffffff82169050919050565b620001578162000118565b81146200016357600080fd5b50565b61665080620001766000396000f3fe6080604052600436106102305760003560e01c806384b5999d1161012e578063bad2be02116100ab578063cea231211161006f578063cea23121146109f0578063cf06039614610a35578063dc3d0e5114610a72578063e0df7bb614610aaf578063f8a6ff6714610ada57610230565b8063bad2be02146108ca578063bc9eb64b14610907578063bd84687c14610932578063c5ec00e714610976578063cb51bba9146109b357610230565b80638da5cb5b116100f25780638da5cb5b146107c757806392c8823b146107f25780639ae9711e14610837578063b56f067a14610862578063ba49a08c1461089f57610230565b806384b5999d1461069957806384de1e0d146106d657806389bb4d991461071357806389c8c7eb146107535780638b1e3dda1461078357610230565b80633edd8f4d116101bc5780635f46c920116101805780635f46c9201461057257806364a6b494146105af57806366d4506e146105da5780636f83bc09146106175780638060ea6b1461065457610230565b80633edd8f4d1461046457806347174cce1461048d57806349bfc4c6146104ca5780635de008c0146105075780635ef8bcb31461053257610230565b806308f69dad1161020357806308f69dad146103345780631a948947146103715780631d834409146103b85780631f77e023146103e3578063237220841461042757610230565b80630186a423146102355780630234efcb1461027957806305dcaa39146102ba57806307fe01f7146102f7575b600080fd5b34801561024157600080fd5b5061025c6004803603810190610257919061515e565b610b0a565b604051610270989796959493929190615e4f565b60405180910390f35b34801561028557600080fd5b506102a0600480360381019061029b919061515e565b610d95565b6040516102b1959493929190615c85565b60405180910390f35b3480156102c657600080fd5b506102e160048036038101906102dc919061568d565b610fa6565b6040516102ee919061608b565b60405180910390f35b34801561030357600080fd5b5061031e600480360381019061031991906156e1565b6112a7565b60405161032b9190615c10565b60405180910390f35b34801561034057600080fd5b5061035b600480360381019061035691906152f7565b611353565b6040516103689190615bf5565b60405180910390f35b34801561037d57600080fd5b506103986004803603810190610393919061515e565b611554565b6040516103af9b9a99989796959493929190615d8f565b60405180910390f35b3480156103c457600080fd5b506103cd6117ca565b6040516103da91906160ad565b60405180910390f35b3480156103ef57600080fd5b5061040a6004803603810190610405919061568d565b6117d0565b60405161041e989796959493929190615e4f565b60405180910390f35b34801561043357600080fd5b5061044e600480360381019061044991906156e1565b611a78565b60405161045b9190615c10565b60405180910390f35b34801561047057600080fd5b5061048b600480360381019061048691906151e0565b611b24565b005b34801561049957600080fd5b506104b460048036038101906104af919061568d565b611bc9565b6040516104c19190615c10565b60405180910390f35b3480156104d657600080fd5b506104f160048036038101906104ec91906151e0565b611c98565b6040516104fe9190615bf5565b60405180910390f35b34801561051357600080fd5b5061051c611ee6565b60405161052991906160ad565b60405180910390f35b34801561053e57600080fd5b506105596004803603810190610554919061515e565b611eec565b6040516105699493929190615c32565b60405180910390f35b34801561057e57600080fd5b5061059960048036038101906105949190615465565b61205c565b6040516105a69190615bf5565b60405180910390f35b3480156105bb57600080fd5b506105c461243e565b6040516105d191906160ad565b60405180910390f35b3480156105e657600080fd5b5061060160048036038101906105fc919061515e565b612444565b60405161060e91906160ad565b60405180910390f35b34801561062357600080fd5b5061063e6004803603810190610639919061515e565b612472565b60405161064b91906160ad565b60405180910390f35b34801561066057600080fd5b5061067b6004803603810190610676919061515e565b6124a0565b60405161069099989796959493929190615ced565b60405180910390f35b3480156106a557600080fd5b506106c060048036038101906106bb919061568d565b6126f0565b6040516106cd9190615bf5565b60405180910390f35b3480156106e257600080fd5b506106fd60048036038101906106f891906151e0565b612832565b60405161070a9190615bf5565b60405180910390f35b34801561071f57600080fd5b5061073a6004803603810190610735919061515e565b61291d565b60405161074a9493929190615c32565b60405180910390f35b61076d6004803603810190610768919061524c565b612a8d565b60405161077a9190615bf5565b60405180910390f35b34801561078f57600080fd5b506107aa60048036038101906107a5919061568d565b613138565b6040516107be989796959493929190615e4f565b60405180910390f35b3480156107d357600080fd5b506107dc6133e0565b6040516107e99190615bda565b60405180910390f35b3480156107fe57600080fd5b50610819600480360381019061081491906156e1565b613404565b60405161082e99989796959493929190615ced565b60405180910390f35b34801561084357600080fd5b5061084c61364e565b60405161085991906160ad565b60405180910390f35b34801561086e57600080fd5b506108896004803603810190610884919061568d565b613654565b604051610896919061608b565b60405180910390f35b3480156108ab57600080fd5b506108b4613955565b6040516108c191906160ad565b60405180910390f35b3480156108d657600080fd5b506108f160048036038101906108ec91906156e1565b61395b565b6040516108fe9190615c10565b60405180910390f35b34801561091357600080fd5b5061091c613a07565b6040516109299190615bda565b60405180910390f35b34801561093e57600080fd5b506109596004803603810190610954919061568d565b613a2d565b60405161096d989796959493929190615e4f565b60405180910390f35b34801561098257600080fd5b5061099d6004803603810190610998919061558f565b613cd5565b6040516109aa9190615bf5565b60405180910390f35b3480156109bf57600080fd5b506109da60048036038101906109d591906156e1565b613fba565b6040516109e79190615c10565b60405180910390f35b3480156109fc57600080fd5b50610a176004803603810190610a1291906156e1565b614066565b604051610a2c99989796959493929190615ced565b60405180910390f35b348015610a4157600080fd5b50610a5c6004803603810190610a57919061515e565b6142b0565b604051610a699190615c10565b60405180910390f35b348015610a7e57600080fd5b50610a996004803603810190610a94919061568d565b614366565b604051610aa69190616069565b60405180910390f35b348015610abb57600080fd5b50610ac46147b2565b604051610ad191906160ad565b60405180910390f35b610af46004803603810190610aef91906153ba565b6147b8565b604051610b019190615bf5565b60405180910390f35b600a81805160208101820180518482526020830160208501208183528095505050505050600091509050806000018054610b4390616241565b80601f0160208091040260200160405190810160405280929190818152602001828054610b6f90616241565b8015610bbc5780601f10610b9157610100808354040283529160200191610bbc565b820191906000526020600020905b815481529060010190602001808311610b9f57829003601f168201915b505050505090806001018054610bd190616241565b80601f0160208091040260200160405190810160405280929190818152602001828054610bfd90616241565b8015610c4a5780601f10610c1f57610100808354040283529160200191610c4a565b820191906000526020600020905b815481529060010190602001808311610c2d57829003601f168201915b505050505090806002015490806003018054610c6590616241565b80601f0160208091040260200160405190810160405280929190818152602001828054610c9190616241565b8015610cde5780601f10610cb357610100808354040283529160200191610cde565b820191906000526020600020905b815481529060010190602001808311610cc157829003601f168201915b505050505090806004018054610cf390616241565b80601f0160208091040260200160405190810160405280929190818152602001828054610d1f90616241565b8015610d6c5780601f10610d4157610100808354040283529160200191610d6c565b820191906000526020600020905b815481529060010190602001808311610d4f57829003601f168201915b5050505050908060050154908060060154908060070160009054906101000a900460ff16905088565b600e81805160208101820180518482526020830160208501208183528095505050505050600091509050806000018054610dce90616241565b80601f0160208091040260200160405190810160405280929190818152602001828054610dfa90616241565b8015610e475780601f10610e1c57610100808354040283529160200191610e47565b820191906000526020600020905b815481529060010190602001808311610e2a57829003601f168201915b505050505090806001018054610e5c90616241565b80601f0160208091040260200160405190810160405280929190818152602001828054610e8890616241565b8015610ed55780601f10610eaa57610100808354040283529160200191610ed5565b820191906000526020600020905b815481529060010190602001808311610eb857829003601f168201915b505050505090806002018054610eea90616241565b80601f0160208091040260200160405190810160405280929190818152602001828054610f1690616241565b8015610f635780601f10610f3857610100808354040283529160200191610f63565b820191906000526020600020905b815481529060010190602001808311610f4657829003601f168201915b5050505050908060030160009054906101000a900473ffffffffffffffffffffffffffffffffffffffff16908060030160149054906101000a900460ff16905085565b610fae614dfb565b600583604051610fbe9190615bae565b90815260200160405180910390208281548110611004577f4e487b7100000000000000000000000000000000000000000000000000000000600052603260045260246000fd5b90600052602060002090600802016040518061010001604052908160008201805461102e90616241565b80601f016020809104026020016040519081016040528092919081815260200182805461105a90616241565b80156110a75780601f1061107c576101008083540402835291602001916110a7565b820191906000526020600020905b81548152906001019060200180831161108a57829003601f168201915b505050505081526020016001820180546110c090616241565b80601f01602080910402602001604051908101604052809291908181526020018280546110ec90616241565b80156111395780601f1061110e57610100808354040283529160200191611139565b820191906000526020600020905b81548152906001019060200180831161111c57829003601f168201915b505050505081526020016002820154815260200160038201805461115c90616241565b80601f016020809104026020016040519081016040528092919081815260200182805461118890616241565b80156111d55780601f106111aa576101008083540402835291602001916111d5565b820191906000526020600020905b8154815290600101906020018083116111b857829003601f168201915b505050505081526020016004820180546111ee90616241565b80601f016020809104026020016040519081016040528092919081815260200182805461121a90616241565b80156112675780601f1061123c57610100808354040283529160200191611267565b820191906000526020600020905b81548152906001019060200180831161124a57829003601f168201915b5050505050815260200160058201548152602001600682015481526020016007820160009054906101000a900460ff161515151581525050905092915050565b601181815481106112b757600080fd5b9060005260206000200160009150905080546112d290616241565b80601f01602080910402602001604051908101604052809291908181526020018280546112fe90616241565b801561134b5780601f106113205761010080835404028352916020019161134b565b820191906000526020600020905b81548152906001019060200180831161132e57829003601f168201915b505050505081565b6000600e856040516113659190615bae565b908152602001604051809103902060030160149054906101000a900460ff16156113c4576040517f08c379a00000000000000000000000000000000000000000000000000000000081526004016113bb90615fc9565b60405180910390fd5b60006040518060a001604052808781526020018681526020018581526020013373ffffffffffffffffffffffffffffffffffffffff1681526020016001151581525090506114128387612832565b5080600e876040516114249190615bae565b9081526020016040518091039020600082015181600001908051906020019061144e929190614e42565b50602082015181600101908051906020019061146b929190614e42565b506040820151816002019080519060200190611488929190614e42565b5060608201518160030160006101000a81548173ffffffffffffffffffffffffffffffffffffffff021916908373ffffffffffffffffffffffffffffffffffffffff16021790555060808201518160030160146101000a81548160ff02191690831515021790555090505060106000815480929190611506906162a4565b9190505550601186908060018154018082558091505060019003906000526020600020016000909190919091509080519060200190611546929190614e42565b506001915050949350505050565b60168180516020810182018051848252602083016020850120818352809550505050505060009150905080600001805461158d90616241565b80601f01602080910402602001604051908101604052809291908181526020018280546115b990616241565b80156116065780601f106115db57610100808354040283529160200191611606565b820191906000526020600020905b8154815290600101906020018083116115e957829003601f168201915b50505050509080600101805461161b90616241565b80601f016020809104026020016040519081016040528092919081815260200182805461164790616241565b80156116945780601f1061166957610100808354040283529160200191611694565b820191906000526020600020905b81548152906001019060200180831161167757829003601f168201915b5050505050908060020180546116a990616241565b80601f01602080910402602001604051908101604052809291908181526020018280546116d590616241565b80156117225780601f106116f757610100808354040283529160200191611722565b820191906000526020600020905b81548152906001019060200180831161170557829003601f168201915b5050505050908060030160009054906101000a900473ffffffffffffffffffffffffffffffffffffffff16908060030160149054906101000a900460ff16908060040154908060050160009054906101000a900460ff16908060050160019054906101000a900460ff16908060050160029054906101000a900460ff16908060050160039054906101000a900460ff16908060050160049054906101000a900460ff1690508b565b601b5481565b601382805160208101820180518482526020830160208501208183528095505050505050818154811061180257600080fd5b90600052602060002090600802016000915091505080600001805461182690616241565b80601f016020809104026020016040519081016040528092919081815260200182805461185290616241565b801561189f5780601f106118745761010080835404028352916020019161189f565b820191906000526020600020905b81548152906001019060200180831161188257829003601f168201915b5050505050908060010180546118b490616241565b80601f01602080910402602001604051908101604052809291908181526020018280546118e090616241565b801561192d5780601f106119025761010080835404028352916020019161192d565b820191906000526020600020905b81548152906001019060200180831161191057829003601f168201915b50505050509080600201549080600301805461194890616241565b80601f016020809104026020016040519081016040528092919081815260200182805461197490616241565b80156119c15780601f10611996576101008083540402835291602001916119c1565b820191906000526020600020905b8154815290600101906020018083116119a457829003601f168201915b5050505050908060040180546119d690616241565b80601f0160208091040260200160405190810160405280929190818152602001828054611a0290616241565b8015611a4f5780601f10611a2457610100808354040283529160200191611a4f565b820191906000526020600020905b815481529060010190602001808311611a3257829003601f168201915b5050505050908060050154908060060154908060070160009054906101000a900460ff16905088565b601a8181548110611a8857600080fd5b906000526020600020016000915090508054611aa390616241565b80601f0160208091040260200160405190810160405280929190818152602001828054611acf90616241565b8015611b1c5780601f10611af157610100808354040283529160200191611b1c565b820191906000526020600020905b815481529060010190602001808311611aff57829003601f168201915b505050505081565b601682604051611b349190615bae565b908152602001604051809103902060050160019054906101000a900460ff16611b92576040517f08c379a0000000000000000000000000000000000000000000000000000000008152600401611b8990615f69565b60405180910390fd5b80601983604051611ba39190615bae565b90815260200160405180910390209080519060200190611bc4929190614e42565b505050565b6017828051602081018201805184825260208301602085012081835280955050505050508181548110611bfb57600080fd5b90600052602060002001600091509150508054611c1790616241565b80601f0160208091040260200160405190810160405280929190818152602001828054611c4390616241565b8015611c905780601f10611c6557610100808354040283529160200191611c90565b820191906000526020600020905b815481529060010190602001808311611c7357829003601f168201915b505050505081565b6000601283604051611caa9190615bae565b908152602001604051809103902060020160019054906101000a900460ff16611d08576040517f08c379a0000000000000000000000000000000000000000000000000000000008152600401611cff90615f09565b60405180910390fd5b600a82604051611d189190615bae565b908152602001604051809103902060070160009054906101000a900460ff16611d76576040517f08c379a0000000000000000000000000000000000000000000000000000000008152600401611d6d90615fe9565b60405180910390fd5b601383604051611d869190615bae565b9081526020016040518091039020600a83604051611da49190615bae565b908152602001604051809103902090806001815401808255809150506001900390600052602060002090600802016000909190919091506000820181600001908054611def90616241565b611dfa929190614ec8565b506001820181600101908054611e0f90616241565b611e1a929190614ec8565b50600282015481600201556003820181600301908054611e3990616241565b611e44929190614ec8565b506004820181600401908054611e5990616241565b611e64929190614ec8565b5060058201548160050155600682015481600601556007820160009054906101000a900460ff168160070160006101000a81548160ff0219169083151502179055505050601483604051611eb89190615bae565b90815260200160405180910390206000815480929190611ed7906162a4565b91905055506001905092915050565b60085481565b601281805160208101820180518482526020830160208501208183528095505050505050600091509050806000018054611f2590616241565b80601f0160208091040260200160405190810160405280929190818152602001828054611f5190616241565b8015611f9e5780601f10611f7357610100808354040283529160200191611f9e565b820191906000526020600020905b815481529060010190602001808311611f8157829003601f168201915b505050505090806001018054611fb390616241565b80601f0160208091040260200160405190810160405280929190818152602001828054611fdf90616241565b801561202c5780601f106120015761010080835404028352916020019161202c565b820191906000526020600020905b81548152906001019060200180831161200f57829003601f168201915b5050505050908060020160009054906101000a900460ff16908060020160019054906101000a900460ff16905084565b600060048560405161206e9190615bae565b908152602001604051809103902060030160159054906101000a900460ff166120cc576040517f08c379a00000000000000000000000000000000000000000000000000000000081526004016120c390616009565b60405180910390fd5b60006040518061010001604052808a81526020018981526020018881526020018781526020018681526020018581526020018481526020016001151581525090506001915080600a8a6040516121229190615bae565b9081526020016040518091039020600082015181600001908051906020019061214c929190614e42565b506020820151816001019080519060200190612169929190614e42565b50604082015181600201556060820151816003019080519060200190612190929190614e42565b5060808201518160040190805190602001906121ad929190614e42565b5060a0820151816005015560c0820151816006015560e08201518160070160006101000a81548160ff021916908315150217905550905050600d89908060018154018082558091505060019003906000526020600020016000909190919091509080519060200190612220929190614e42565b50600b8a6040516122319190615bae565b90815260200160405180910390208190806001815401808255809150506001900390600052602060002090600802016000909190919091506000820151816000019080519060200190612285929190614e42565b5060208201518160010190805190602001906122a2929190614e42565b506040820151816002015560608201518160030190805190602001906122c9929190614e42565b5060808201518160040190805190602001906122e6929190614e42565b5060a0820151816005015560c0820151816006015560e08201518160070160006101000a81548160ff021916908315150217905550505060058660405161232d9190615bae565b90815260200160405180910390208190806001815401808255809150506001900390600052602060002090600802016000909190919091506000820151816000019080519060200190612381929190614e42565b50602082015181600101908051906020019061239e929190614e42565b506040820151816002015560608201518160030190805190602001906123c5929190614e42565b5060808201518160040190805190602001906123e2929190614e42565b5060a0820151816005015560c0820151816006015560e08201518160070160006101000a81548160ff0219169083151502179055505050600c600081548092919061242c906162a4565b91905055505098975050505050505050565b60095481565b6018818051602081018201805184825260208301602085012081835280955050505050506000915090505481565b6014818051602081018201805184825260208301602085012081835280955050505050506000915090505481565b6004818051602081018201805184825260208301602085012081835280955050505050506000915090508060000180546124d990616241565b80601f016020809104026020016040519081016040528092919081815260200182805461250590616241565b80156125525780601f1061252757610100808354040283529160200191612552565b820191906000526020600020905b81548152906001019060200180831161253557829003601f168201915b50505050509080600101805461256790616241565b80601f016020809104026020016040519081016040528092919081815260200182805461259390616241565b80156125e05780601f106125b5576101008083540402835291602001916125e0565b820191906000526020600020905b8154815290600101906020018083116125c357829003601f168201915b5050505050908060020180546125f590616241565b80601f016020809104026020016040519081016040528092919081815260200182805461262190616241565b801561266e5780601f106126435761010080835404028352916020019161266e565b820191906000526020600020905b81548152906001019060200180831161265157829003601f168201915b5050505050908060030160009054906101000a900473ffffffffffffffffffffffffffffffffffffffff16908060030160149054906101000a900460ff16908060030160159054906101000a900460ff16908060030160169054906101000a900460ff16908060030160179054906101000a900460ff16908060040154905089565b60008060006016856040516127059190615bae565b908152602001604051809103902090506001841415612744576001915060018160050160016101000a81548160ff021916908315150217905550612766565b60028414156127565760029150612765565b600384141561276457600391505b5b5b6016856040516127769190615bae565b908152602001604051809103902060050160049054906101000a900460ff166127d4576040517f08c379a00000000000000000000000000000000000000000000000000000000081526004016127cb90615fa9565b60405180910390fd5b818160030160146101000a81548160ff02191690836003811115612821577f4e487b7100000000000000000000000000000000000000000000000000000000600052602160045260246000fd5b021790555060019250505092915050565b60008060405180608001604052808581526020018481526020016000151581526020016001151581525090508060128560405161286f9190615bae565b90815260200160405180910390206000820151816000019080519060200190612899929190614e42565b5060208201518160010190805190602001906128b6929190614e42565b5060408201518160020160006101000a81548160ff02191690831515021790555060608201518160020160016101000a81548160ff0219169083151502179055509050506015600081548092919061290d906162a4565b9190505550600191505092915050565b600f8180516020810182018051848252602083016020850120818352809550505050505060009150905080600001805461295690616241565b80601f016020809104026020016040519081016040528092919081815260200182805461298290616241565b80156129cf5780601f106129a4576101008083540402835291602001916129cf565b820191906000526020600020905b8154815290600101906020018083116129b257829003601f168201915b5050505050908060010180546129e490616241565b80601f0160208091040260200160405190810160405280929190818152602001828054612a1090616241565b8015612a5d5780601f10612a3257610100808354040283529160200191612a5d565b820191906000526020600020905b815481529060010190602001808311612a4057829003601f168201915b5050505050908060020160009054906101000a900460ff16908060020160019054906101000a900460ff16905084565b60006005612a9a34614dde565b1473__$1cbe03e533374aa1525b74d371c112da96$__6346a9766a6040518163ffffffff1660e01b815260040160006040518083038186803b158015612adf57600080fd5b505af4158015612af3573d6000803e3d6000fd5b505050506040513d6000823e3d601f19601f82011682018060405250810190612b1c919061519f565b90612b5d576040517f08c379a0000000000000000000000000000000000000000000000000000000008152600401612b549190615c10565b60405180910390fd5b5060008060009054906101000a900473ffffffffffffffffffffffffffffffffffffffff1673ffffffffffffffffffffffffffffffffffffffff1634604051612ba590615bc5565b60006040518083038185875af1925050503d8060008114612be2576040519150601f19603f3d011682016040523d82523d6000602084013e612be7565b606091505b5050905080612c2b576040517f08c379a0000000000000000000000000000000000000000000000000000000008152600401612c2290616049565b60405180910390fd5b60006040518061012001604052808881526020018781526020018681526020013373ffffffffffffffffffffffffffffffffffffffff1681526020018515158152602001600115158152602001600115158152602001600115158152602001612c9334614dde565b815250905080600488604051612ca99190615bae565b90815260200160405180910390206000820151816000019080519060200190612cd3929190614e42565b506020820151816001019080519060200190612cf0929190614e42565b506040820151816002019080519060200190612d0d929190614e42565b5060608201518160030160006101000a81548173ffffffffffffffffffffffffffffffffffffffff021916908373ffffffffffffffffffffffffffffffffffffffff16021790555060808201518160030160146101000a81548160ff02191690831515021790555060a08201518160030160156101000a81548160ff02191690831515021790555060c08201518160030160166101000a81548160ff02191690831515021790555060e08201518160030160176101000a81548160ff02191690831515021790555061010082015181600401559050506001925083612f485760028190806001815401808255809150506001900390600052602060002090600502016000909190919091506000820151816000019080519060200190612e34929190614e42565b506020820151816001019080519060200190612e51929190614e42565b506040820151816002019080519060200190612e6e929190614e42565b5060608201518160030160006101000a81548173ffffffffffffffffffffffffffffffffffffffff021916908373ffffffffffffffffffffffffffffffffffffffff16021790555060808201518160030160146101000a81548160ff02191690831515021790555060a08201518160030160156101000a81548160ff02191690831515021790555060c08201518160030160166101000a81548160ff02191690831515021790555060e08201518160030160176101000a81548160ff021916908315150217905550610100820151816004015550506130a0565b60038190806001815401808255809150506001900390600052602060002090600502016000909190919091506000820151816000019080519060200190612f90929190614e42565b506020820151816001019080519060200190612fad929190614e42565b506040820151816002019080519060200190612fca929190614e42565b5060608201518160030160006101000a81548173ffffffffffffffffffffffffffffffffffffffff021916908373ffffffffffffffffffffffffffffffffffffffff16021790555060808201518160030160146101000a81548160ff02191690831515021790555060a08201518160030160156101000a81548160ff02191690831515021790555060c08201518160030160166101000a81548160ff02191690831515021790555060e08201518160030160176101000a81548160ff021916908315150217905550610100820151816004015550505b836130c157600860008154809291906130b8906162a4565b919050556130d9565b600960008154809291906130d4906162a4565b919050555b50600687908060018154018082558091505060019003906000526020600020016000909190919091509080519060200190613115929190614e42565b5060076000815480929190613129906162a4565b91905055505050949350505050565b600582805160208101820180518482526020830160208501208183528095505050505050818154811061316a57600080fd5b90600052602060002090600802016000915091505080600001805461318e90616241565b80601f01602080910402602001604051908101604052809291908181526020018280546131ba90616241565b80156132075780601f106131dc57610100808354040283529160200191613207565b820191906000526020600020905b8154815290600101906020018083116131ea57829003601f168201915b50505050509080600101805461321c90616241565b80601f016020809104026020016040519081016040528092919081815260200182805461324890616241565b80156132955780601f1061326a57610100808354040283529160200191613295565b820191906000526020600020905b81548152906001019060200180831161327857829003601f168201915b5050505050908060020154908060030180546132b090616241565b80601f01602080910402602001604051908101604052809291908181526020018280546132dc90616241565b80156133295780601f106132fe57610100808354040283529160200191613329565b820191906000526020600020905b81548152906001019060200180831161330c57829003601f168201915b50505050509080600401805461333e90616241565b80601f016020809104026020016040519081016040528092919081815260200182805461336a90616241565b80156133b75780601f1061338c576101008083540402835291602001916133b7565b820191906000526020600020905b81548152906001019060200180831161339a57829003601f168201915b5050505050908060050154908060060154908060070160009054906101000a900460ff16905088565b60008054906101000a900473ffffffffffffffffffffffffffffffffffffffff1681565b6002818154811061341457600080fd5b906000526020600020906005020160009150905080600001805461343790616241565b80601f016020809104026020016040519081016040528092919081815260200182805461346390616241565b80156134b05780601f10613485576101008083540402835291602001916134b0565b820191906000526020600020905b81548152906001019060200180831161349357829003601f168201915b5050505050908060010180546134c590616241565b80601f01602080910402602001604051908101604052809291908181526020018280546134f190616241565b801561353e5780601f106135135761010080835404028352916020019161353e565b820191906000526020600020905b81548152906001019060200180831161352157829003601f168201915b50505050509080600201805461355390616241565b80601f016020809104026020016040519081016040528092919081815260200182805461357f90616241565b80156135cc5780601f106135a1576101008083540402835291602001916135cc565b820191906000526020600020905b8154815290600101906020018083116135af57829003601f168201915b5050505050908060030160009054906101000a900473ffffffffffffffffffffffffffffffffffffffff16908060030160149054906101000a900460ff16908060030160159054906101000a900460ff16908060030160169054906101000a900460ff16908060030160179054906101000a900460ff16908060040154905089565b60075481565b61365c614dfb565b60138360405161366c9190615bae565b908152602001604051809103902082815481106136b2577f4e487b7100000000000000000000000000000000000000000000000000000000600052603260045260246000fd5b9060005260206000209060080201604051806101000160405290816000820180546136dc90616241565b80601f016020809104026020016040519081016040528092919081815260200182805461370890616241565b80156137555780601f1061372a57610100808354040283529160200191613755565b820191906000526020600020905b81548152906001019060200180831161373857829003601f168201915b5050505050815260200160018201805461376e90616241565b80601f016020809104026020016040519081016040528092919081815260200182805461379a90616241565b80156137e75780601f106137bc576101008083540402835291602001916137e7565b820191906000526020600020905b8154815290600101906020018083116137ca57829003601f168201915b505050505081526020016002820154815260200160038201805461380a90616241565b80601f016020809104026020016040519081016040528092919081815260200182805461383690616241565b80156138835780601f1061385857610100808354040283529160200191613883565b820191906000526020600020905b81548152906001019060200180831161386657829003601f168201915b5050505050815260200160048201805461389c90616241565b80601f01602080910402602001604051908101604052809291908181526020018280546138c890616241565b80156139155780601f106138ea57610100808354040283529160200191613915565b820191906000526020600020905b8154815290600101906020018083116138f857829003601f168201915b5050505050815260200160058201548152602001600682015481526020016007820160009054906101000a900460ff161515151581525050905092915050565b60105481565b6006818154811061396b57600080fd5b90600052602060002001600091509050805461398690616241565b80601f01602080910402602001604051908101604052809291908181526020018280546139b290616241565b80156139ff5780601f106139d4576101008083540402835291602001916139ff565b820191906000526020600020905b8154815290600101906020018083116139e257829003601f168201915b505050505081565b600160009054906101000a900473ffffffffffffffffffffffffffffffffffffffff1681565b600b828051602081018201805184825260208301602085012081835280955050505050508181548110613a5f57600080fd5b906000526020600020906008020160009150915050806000018054613a8390616241565b80601f0160208091040260200160405190810160405280929190818152602001828054613aaf90616241565b8015613afc5780601f10613ad157610100808354040283529160200191613afc565b820191906000526020600020905b815481529060010190602001808311613adf57829003601f168201915b505050505090806001018054613b1190616241565b80601f0160208091040260200160405190810160405280929190818152602001828054613b3d90616241565b8015613b8a5780601f10613b5f57610100808354040283529160200191613b8a565b820191906000526020600020905b815481529060010190602001808311613b6d57829003601f168201915b505050505090806002015490806003018054613ba590616241565b80601f0160208091040260200160405190810160405280929190818152602001828054613bd190616241565b8015613c1e5780601f10613bf357610100808354040283529160200191613c1e565b820191906000526020600020905b815481529060010190602001808311613c0157829003601f168201915b505050505090806004018054613c3390616241565b80601f0160208091040260200160405190810160405280929190818152602001828054613c5f90616241565b8015613cac5780601f10613c8157610100808354040283529160200191613cac565b820191906000526020600020905b815481529060010190602001808311613c8f57829003601f168201915b5050505050908060050154908060060154908060070160009054906101000a900460ff16905088565b6000600485604051613ce79190615bae565b908152602001604051809103902060030160159054906101000a900460ff16613d45576040517f08c379a0000000000000000000000000000000000000000000000000000000008152600401613d3c90616009565b60405180910390fd5b60006040518061010001604052808a815260200189815260200188815260200187815260200186815260200185815260200184815260200160011515815250905080600a8a604051613d979190615bae565b90815260200160405180910390206000820151816000019080519060200190613dc1929190614e42565b506020820151816001019080519060200190613dde929190614e42565b50604082015181600201556060820151816003019080519060200190613e05929190614e42565b506080820151816004019080519060200190613e22929190614e42565b5060a0820151816005015560c0820151816006015560e08201518160070160006101000a81548160ff021916908315150217905550905050600d89908060018154018082558091505060019003906000526020600020016000909190919091509080519060200190613e95929190614e42565b50600586604051613ea69190615bae565b90815260200160405180910390208190806001815401808255809150506001900390600052602060002090600802016000909190919091506000820151816000019080519060200190613efa929190614e42565b506020820151816001019080519060200190613f17929190614e42565b50604082015181600201556060820151816003019080519060200190613f3e929190614e42565b506080820151816004019080519060200190613f5b929190614e42565b5060a0820151816005015560c0820151816006015560e08201518160070160006101000a81548160ff021916908315150217905550505060019150600c6000815480929190613fa9906162a4565b919050555050979650505050505050565b600d8181548110613fca57600080fd5b906000526020600020016000915090508054613fe590616241565b80601f016020809104026020016040519081016040528092919081815260200182805461401190616241565b801561405e5780601f106140335761010080835404028352916020019161405e565b820191906000526020600020905b81548152906001019060200180831161404157829003601f168201915b505050505081565b6003818154811061407657600080fd5b906000526020600020906005020160009150905080600001805461409990616241565b80601f01602080910402602001604051908101604052809291908181526020018280546140c590616241565b80156141125780601f106140e757610100808354040283529160200191614112565b820191906000526020600020905b8154815290600101906020018083116140f557829003601f168201915b50505050509080600101805461412790616241565b80601f016020809104026020016040519081016040528092919081815260200182805461415390616241565b80156141a05780601f10614175576101008083540402835291602001916141a0565b820191906000526020600020905b81548152906001019060200180831161418357829003601f168201915b5050505050908060020180546141b590616241565b80601f01602080910402602001604051908101604052809291908181526020018280546141e190616241565b801561422e5780601f106142035761010080835404028352916020019161422e565b820191906000526020600020905b81548152906001019060200180831161421157829003601f168201915b5050505050908060030160009054906101000a900473ffffffffffffffffffffffffffffffffffffffff16908060030160149054906101000a900460ff16908060030160159054906101000a900460ff16908060030160169054906101000a900460ff16908060030160179054906101000a900460ff16908060040154905089565b60198180516020810182018051848252602083016020850120818352809550505050505060009150905080546142e590616241565b80601f016020809104026020016040519081016040528092919081815260200182805461431190616241565b801561435e5780601f106143335761010080835404028352916020019161435e565b820191906000526020600020905b81548152906001019060200180831161434157829003601f168201915b505050505081565b61436e614f55565b60006017846040516143809190615bae565b908152602001604051809103902083815481106143c6577f4e487b7100000000000000000000000000000000000000000000000000000000600052603260045260246000fd5b9060005260206000200180546143db90616241565b80601f016020809104026020016040519081016040528092919081815260200182805461440790616241565b80156144545780601f1061442957610100808354040283529160200191614454565b820191906000526020600020905b81548152906001019060200180831161443757829003601f168201915b5050505050905060168160405161446b9190615bae565b90815260200160405180910390206040518061016001604052908160008201805461449590616241565b80601f01602080910402602001604051908101604052809291908181526020018280546144c190616241565b801561450e5780601f106144e35761010080835404028352916020019161450e565b820191906000526020600020905b8154815290600101906020018083116144f157829003601f168201915b5050505050815260200160018201805461452790616241565b80601f016020809104026020016040519081016040528092919081815260200182805461455390616241565b80156145a05780601f10614575576101008083540402835291602001916145a0565b820191906000526020600020905b81548152906001019060200180831161458357829003601f168201915b505050505081526020016002820180546145b990616241565b80601f01602080910402602001604051908101604052809291908181526020018280546145e590616241565b80156146325780601f1061460757610100808354040283529160200191614632565b820191906000526020600020905b81548152906001019060200180831161461557829003601f168201915b505050505081526020016003820160009054906101000a900473ffffffffffffffffffffffffffffffffffffffff1673ffffffffffffffffffffffffffffffffffffffff1673ffffffffffffffffffffffffffffffffffffffff1681526020016003820160149054906101000a900460ff1660038111156146dc577f4e487b7100000000000000000000000000000000000000000000000000000000600052602160045260246000fd5b6003811115614714577f4e487b7100000000000000000000000000000000000000000000000000000000600052602160045260246000fd5b8152602001600482015481526020016005820160009054906101000a900460ff161515151581526020016005820160019054906101000a900460ff161515151581526020016005820160029054906101000a900460ff161515151581526020016005820160039054906101000a900460ff161515151581526020016005820160049054906101000a900460ff16151515158152505091505092915050565b600c5481565b6000600e846040516147ca9190615bae565b908152602001604051809103902060030160149054906101000a900460ff16614828576040517f08c379a000000000000000000000000000000000000000000000000000000000815260040161481f90615ee9565b60405180910390fd5b6012836040516148389190615bae565b908152602001604051809103902060020160019054906101000a900460ff16614896576040517f08c379a000000000000000000000000000000000000000000000000000000000815260040161488d90615f09565b60405180910390fd5b60006014846040516148a89190615bae565b908152602001604051809103902054116148f7576040517f08c379a00000000000000000000000000000000000000000000000000000000081526004016148ee90615f89565b60405180910390fd5b6000821161493a576040517f08c379a000000000000000000000000000000000000000000000000000000000815260040161493190616029565b60405180910390fd5b61494334614dde565b8214614984576040517f08c379a000000000000000000000000000000000000000000000000000000000815260040161497b90615f49565b60405180910390fd5b60006040518061016001604052808781526020018681526020018581526020013373ffffffffffffffffffffffffffffffffffffffff168152602001600060038111156149fa577f4e487b7100000000000000000000000000000000000000000000000000000000600052602160045260246000fd5b81526020018481526020016000151581526020016000151581526020016000151581526020016000151581526020016001151581525090506000600160009054906101000a900473ffffffffffffffffffffffffffffffffffffffff1673ffffffffffffffffffffffffffffffffffffffff1634604051614a7a90615bc5565b60006040518083038185875af1925050503d8060008114614ab7576040519150601f19603f3d011682016040523d82523d6000602084013e614abc565b606091505b5050905080614b00576040517f08c379a0000000000000000000000000000000000000000000000000000000008152600401614af790615f29565b60405180910390fd5b81601688604051614b119190615bae565b90815260200160405180910390206000820151816000019080519060200190614b3b929190614e42565b506020820151816001019080519060200190614b58929190614e42565b506040820151816002019080519060200190614b75929190614e42565b5060608201518160030160006101000a81548173ffffffffffffffffffffffffffffffffffffffff021916908373ffffffffffffffffffffffffffffffffffffffff16021790555060808201518160030160146101000a81548160ff02191690836003811115614c0e577f4e487b7100000000000000000000000000000000000000000000000000000000600052602160045260246000fd5b021790555060a0820151816004015560c08201518160050160006101000a81548160ff02191690831515021790555060e08201518160050160016101000a81548160ff0219169083151502179055506101008201518160050160026101000a81548160ff0219169083151502179055506101208201518160050160036101000a81548160ff0219169083151502179055506101408201518160050160046101000a81548160ff021916908315150217905550905050601786604051614cd39190615bae565b908152602001604051809103902087908060018154018082558091505060019003906000526020600020016000909190919091509080519060200190614d1a929190614e42565b50601886604051614d2b9190615bae565b90815260200160405180910390206000815480929190614d4a906162a4565b9190505550601b6000815480929190614d62906162a4565b9190505550600f85604051614d779190615bae565b908152602001604051809103902060008082016000614d969190615007565b600182016000614da69190615007565b6002820160006101000a81549060ff02191690556002820160016101000a81549060ff02191690555050600192505050949350505050565b6000670de0b6b3a764000082614df49190616161565b9050919050565b604051806101000160405280606081526020016060815260200160008152602001606081526020016060815260200160008152602001600081526020016000151581525090565b828054614e4e90616241565b90600052602060002090601f016020900481019282614e705760008555614eb7565b82601f10614e8957805160ff1916838001178555614eb7565b82800160010185558215614eb7579182015b82811115614eb6578251825591602001919060010190614e9b565b5b509050614ec49190615047565b5090565b828054614ed490616241565b90600052602060002090601f016020900481019282614ef65760008555614f44565b82601f10614f075780548555614f44565b82800160010185558215614f4457600052602060002091601f016020900482015b82811115614f43578254825591600101919060010190614f28565b5b509050614f519190615047565b5090565b604051806101600160405280606081526020016060815260200160608152602001600073ffffffffffffffffffffffffffffffffffffffff16815260200160006003811115614fcd577f4e487b7100000000000000000000000000000000000000000000000000000000600052602160045260246000fd5b8152602001600081526020016000151581526020016000151581526020016000151581526020016000151581526020016000151581525090565b50805461501390616241565b6000825580601f106150255750615044565b601f0160209004906000526020600020908101906150439190615047565b5b50565b5b80821115615060576000816000905550600101615048565b5090565b6000615077615072846160ed565b6160c8565b90508281526020810184848401111561508f57600080fd5b61509a8482856161ff565b509392505050565b60006150b56150b0846160ed565b6160c8565b9050828152602081018484840111156150cd57600080fd5b6150d884828561620e565b509392505050565b6000813590506150ef816165ec565b92915050565b600082601f83011261510657600080fd5b8135615116848260208601615064565b91505092915050565b600082601f83011261513057600080fd5b81516151408482602086016150a2565b91505092915050565b60008135905061515881616603565b92915050565b60006020828403121561517057600080fd5b600082013567ffffffffffffffff81111561518a57600080fd5b615196848285016150f5565b91505092915050565b6000602082840312156151b157600080fd5b600082015167ffffffffffffffff8111156151cb57600080fd5b6151d78482850161511f565b91505092915050565b600080604083850312156151f357600080fd5b600083013567ffffffffffffffff81111561520d57600080fd5b615219858286016150f5565b925050602083013567ffffffffffffffff81111561523657600080fd5b615242858286016150f5565b9150509250929050565b6000806000806080858703121561526257600080fd5b600085013567ffffffffffffffff81111561527c57600080fd5b615288878288016150f5565b945050602085013567ffffffffffffffff8111156152a557600080fd5b6152b1878288016150f5565b935050604085013567ffffffffffffffff8111156152ce57600080fd5b6152da878288016150f5565b92505060606152eb878288016150e0565b91505092959194509250565b6000806000806080858703121561530d57600080fd5b600085013567ffffffffffffffff81111561532757600080fd5b615333878288016150f5565b945050602085013567ffffffffffffffff81111561535057600080fd5b61535c878288016150f5565b935050604085013567ffffffffffffffff81111561537957600080fd5b615385878288016150f5565b925050606085013567ffffffffffffffff8111156153a257600080fd5b6153ae878288016150f5565b91505092959194509250565b600080600080608085870312156153d057600080fd5b600085013567ffffffffffffffff8111156153ea57600080fd5b6153f6878288016150f5565b945050602085013567ffffffffffffffff81111561541357600080fd5b61541f878288016150f5565b935050604085013567ffffffffffffffff81111561543c57600080fd5b615448878288016150f5565b925050606061545987828801615149565b91505092959194509250565b600080600080600080600080610100898b03121561548257600080fd5b600089013567ffffffffffffffff81111561549c57600080fd5b6154a88b828c016150f5565b985050602089013567ffffffffffffffff8111156154c557600080fd5b6154d18b828c016150f5565b975050604089013567ffffffffffffffff8111156154ee57600080fd5b6154fa8b828c016150f5565b965050606061550b8b828c01615149565b955050608089013567ffffffffffffffff81111561552857600080fd5b6155348b828c016150f5565b94505060a089013567ffffffffffffffff81111561555157600080fd5b61555d8b828c016150f5565b93505060c061556e8b828c01615149565b92505060e061557f8b828c01615149565b9150509295985092959890939650565b600080600080600080600060e0888a0312156155aa57600080fd5b600088013567ffffffffffffffff8111156155c457600080fd5b6155d08a828b016150f5565b975050602088013567ffffffffffffffff8111156155ed57600080fd5b6155f98a828b016150f5565b965050604061560a8a828b01615149565b955050606088013567ffffffffffffffff81111561562757600080fd5b6156338a828b016150f5565b945050608088013567ffffffffffffffff81111561565057600080fd5b61565c8a828b016150f5565b93505060a061566d8a828b01615149565b92505060c061567e8a828b01615149565b91505092959891949750929550565b600080604083850312156156a057600080fd5b600083013567ffffffffffffffff8111156156ba57600080fd5b6156c6858286016150f5565b92505060206156d785828601615149565b9150509250929050565b6000602082840312156156f357600080fd5b600061570184828501615149565b91505092915050565b61571381616192565b82525050565b61572281616192565b82525050565b615731816161a4565b82525050565b615740816161a4565b82525050565b61574f816161ed565b82525050565b61575e816161ed565b82525050565b600061576f8261611e565b6157798185616134565b935061578981856020860161620e565b615792816163d8565b840191505092915050565b60006157a88261611e565b6157b28185616145565b93506157c281856020860161620e565b6157cb816163d8565b840191505092915050565b60006157e18261611e565b6157eb8185616156565b93506157fb81856020860161620e565b80840191505092915050565b6000615814600383616145565b915061581f826163e9565b602082019050919050565b6000615837600383616145565b915061584282616412565b602082019050919050565b600061585a600383616145565b91506158658261643b565b602082019050919050565b600061587d600383616145565b915061588882616464565b602082019050919050565b60006158a0600383616145565b91506158ab8261648d565b602082019050919050565b60006158c3600283616145565b91506158ce826164b6565b602082019050919050565b60006158e6600383616145565b91506158f1826164df565b602082019050919050565b6000615909600383616145565b915061591482616508565b602082019050919050565b600061592c600383616145565b915061593782616531565b602082019050919050565b600061594f600283616145565b915061595a8261655a565b602082019050919050565b6000615972600883616145565b915061597d82616583565b602082019050919050565b6000615995600083616129565b91506159a0826165ac565b600082019050919050565b60006159b8600283616145565b91506159c3826165af565b602082019050919050565b60006101608301600083015184820360008601526159ec8282615764565b91505060208301518482036020860152615a068282615764565b91505060408301518482036040860152615a208282615764565b9150506060830151615a35606086018261570a565b506080830151615a486080860182615746565b5060a0830151615a5b60a0860182615b90565b5060c0830151615a6e60c0860182615728565b5060e0830151615a8160e0860182615728565b50610100830151615a96610100860182615728565b50610120830151615aab610120860182615728565b50610140830151615ac0610140860182615728565b508091505092915050565b6000610100830160008301518482036000860152615ae98282615764565b91505060208301518482036020860152615b038282615764565b9150506040830151615b186040860182615b90565b5060608301518482036060860152615b308282615764565b91505060808301518482036080860152615b4a8282615764565b91505060a0830151615b5f60a0860182615b90565b5060c0830151615b7260c0860182615b90565b5060e0830151615b8560e0860182615728565b508091505092915050565b615b99816161e3565b82525050565b615ba8816161e3565b82525050565b6000615bba82846157d6565b915081905092915050565b6000615bd082615988565b9150819050919050565b6000602082019050615bef6000830184615719565b92915050565b6000602082019050615c0a6000830184615737565b92915050565b60006020820190508181036000830152615c2a818461579d565b905092915050565b60006080820190508181036000830152615c4c818761579d565b90508181036020830152615c60818661579d565b9050615c6f6040830185615737565b615c7c6060830184615737565b95945050505050565b600060a0820190508181036000830152615c9f818861579d565b90508181036020830152615cb3818761579d565b90508181036040830152615cc7818661579d565b9050615cd66060830185615719565b615ce36080830184615737565b9695505050505050565b6000610120820190508181036000830152615d08818c61579d565b90508181036020830152615d1c818b61579d565b90508181036040830152615d30818a61579d565b9050615d3f6060830189615719565b615d4c6080830188615737565b615d5960a0830187615737565b615d6660c0830186615737565b615d7360e0830185615737565b615d81610100830184615b9f565b9a9950505050505050505050565b6000610160820190508181036000830152615daa818e61579d565b90508181036020830152615dbe818d61579d565b90508181036040830152615dd2818c61579d565b9050615de1606083018b615719565b615dee608083018a615755565b615dfb60a0830189615b9f565b615e0860c0830188615737565b615e1560e0830187615737565b615e23610100830186615737565b615e31610120830185615737565b615e3f610140830184615737565b9c9b505050505050505050505050565b6000610100820190508181036000830152615e6a818b61579d565b90508181036020830152615e7e818a61579d565b9050615e8d6040830189615b9f565b8181036060830152615e9f818861579d565b90508181036080830152615eb3818761579d565b9050615ec260a0830186615b9f565b615ecf60c0830185615b9f565b615edc60e0830184615737565b9998505050505050505050565b60006020820190508181036000830152615f0281615807565b9050919050565b60006020820190508181036000830152615f228161582a565b9050919050565b60006020820190508181036000830152615f428161584d565b9050919050565b60006020820190508181036000830152615f6281615870565b9050919050565b60006020820190508181036000830152615f8281615893565b9050919050565b60006020820190508181036000830152615fa2816158b6565b9050919050565b60006020820190508181036000830152615fc2816158d9565b9050919050565b60006020820190508181036000830152615fe2816158fc565b9050919050565b600060208201905081810360008301526160028161591f565b9050919050565b6000602082019050818103600083015261602281615942565b9050919050565b6000602082019050818103600083015261604281615965565b9050919050565b60006020820190508181036000830152616062816159ab565b9050919050565b6000602082019050818103600083015261608381846159ce565b905092915050565b600060208201905081810360008301526160a58184615acb565b905092915050565b60006020820190506160c26000830184615b9f565b92915050565b60006160d26160e3565b90506160de8282616273565b919050565b6000604051905090565b600067ffffffffffffffff821115616108576161076163a9565b5b616111826163d8565b9050602081019050919050565b600081519050919050565b600081905092915050565b600082825260208201905092915050565b600082825260208201905092915050565b600081905092915050565b600061616c826161e3565b9150616177836161e3565b9250826161875761618661631c565b5b828204905092915050565b600061619d826161c3565b9050919050565b60008115159050919050565b60008190506161be826165d8565b919050565b600073ffffffffffffffffffffffffffffffffffffffff82169050919050565b6000819050919050565b60006161f8826161b0565b9050919050565b82818337600083830152505050565b60005b8381101561622c578082015181840152602081019050616211565b8381111561623b576000848401525b50505050565b6000600282049050600182168061625957607f821691505b6020821081141561626d5761626c61637a565b5b50919050565b61627c826163d8565b810181811067ffffffffffffffff8211171561629b5761629a6163a9565b5b80604052505050565b60006162af826161e3565b91507fffffffffffffffffffffffffffffffffffffffffffffffffffffffffffffffff8214156162e2576162e16162ed565b5b600182019050919050565b7f4e487b7100000000000000000000000000000000000000000000000000000000600052601160045260246000fd5b7f4e487b7100000000000000000000000000000000000000000000000000000000600052601260045260246000fd5b7f4e487b7100000000000000000000000000000000000000000000000000000000600052602160045260246000fd5b7f4e487b7100000000000000000000000000000000000000000000000000000000600052602260045260246000fd5b7f4e487b7100000000000000000000000000000000000000000000000000000000600052604160045260246000fd5b6000601f19601f8301169050919050565b7f424e4f0000000000000000000000000000000000000000000000000000000000600082015250565b7f434e4f0000000000000000000000000000000000000000000000000000000000600082015250565b7f4554460000000000000000000000000000000000000000000000000000000000600082015250565b7f454e420000000000000000000000000000000000000000000000000000000000600082015250565b7f4f4e460000000000000000000000000000000000000000000000000000000000600082015250565b7f4345000000000000000000000000000000000000000000000000000000000000600082015250565b7f494f490000000000000000000000000000000000000000000000000000000000600082015250565b7f4241450000000000000000000000000000000000000000000000000000000000600082015250565b7f504e4f0000000000000000000000000000000000000000000000000000000000600082015250565b7f5349000000000000000000000000000000000000000000000000000000000000600082015250565b7f3020457468657273000000000000000000000000000000000000000000000000600082015250565b50565b7f5446000000000000000000000000000000000000000000000000000000000000600082015250565b600481106165e9576165e861634b565b5b50565b6165f5816161a4565b811461660057600080fd5b50565b61660c816161e3565b811461661757600080fd5b5056fea2646970667358221220fcd2edd5821158eaf2ab73b302549bb01b7e295312e3e60f07e2f095e39d073864736f6c63430008040033",
  "linkReferences": {
    "contracts/Libraries/Seller.sol": {
      "Seller": [
        {
          "length": 20,
          "start": 11283
        }
      ]
    }
  },
  "deployedLinkReferences": {
    "contracts/Libraries/Seller.sol": {
      "Seller": [
        {
          "length": 20,
          "start": 10909
        }
      ]
    }
  }
}