{
  "_format": "hh-sol-artifact-1",
  "contractName": "Ecomm",
  "sourceName": "contracts/Ecomm.sol",
  "abi": [
    {
      "inputs": [
        {
          "internalType": "address",
          "name": "_owner",
          "type": "address"
        },
        {
          "internalType": "address",
          "name": "_escrowAccountAddress",
          "type": "address"
        }
      ],
      "stateMutability": "nonpayable",
      "type": "constructor"
    },
    {
      "inputs": [
        {
          "internalType": "string",
          "name": "parentId",
          "type": "string"
        },
        {
          "internalType": "string",
          "name": "id",
          "type": "string"
        },
        {
          "internalType": "string",
          "name": "sku",
          "type": "string"
        },
        {
          "internalType": "uint256",
          "name": "inStock",
          "type": "uint256"
        },
        {
          "internalType": "string",
          "name": "supplierId",
          "type": "string"
        },
        {
          "internalType": "string",
          "name": "metaDataURI",
          "type": "string"
        },
        {
          "internalType": "uint256",
          "name": "supplierPrice",
          "type": "uint256"
        },
        {
          "internalType": "uint256",
          "name": "merchantPrice",
          "type": "uint256"
        }
      ],
      "name": "addChildProduct",
      "outputs": [
        {
          "internalType": "bool",
          "name": "isCreated",
          "type": "bool"
        }
      ],
      "stateMutability": "nonpayable",
      "type": "function"
    },
    {
      "inputs": [
        {
          "internalType": "string",
          "name": "id",
          "type": "string"
        },
        {
          "internalType": "string",
          "name": "sku",
          "type": "string"
        },
        {
          "internalType": "uint256",
          "name": "inStock",
          "type": "uint256"
        },
        {
          "internalType": "string",
          "name": "supplierId",
          "type": "string"
        },
        {
          "internalType": "string",
          "name": "metaDataURI",
          "type": "string"
        },
        {
          "internalType": "uint256",
          "name": "supplierPrice",
          "type": "uint256"
        },
        {
          "internalType": "uint256",
          "name": "merchantPrice",
          "type": "uint256"
        }
      ],
      "name": "addProduct",
      "outputs": [
        {
          "internalType": "bool",
          "name": "isCreated",
          "type": "bool"
        }
      ],
      "stateMutability": "nonpayable",
      "type": "function"
    },
    {
      "inputs": [
        {
          "internalType": "string",
          "name": "cartId",
          "type": "string"
        },
        {
          "internalType": "string",
          "name": "productId",
          "type": "string"
        }
      ],
      "name": "addToCart",
      "outputs": [
        {
          "internalType": "bool",
          "name": "hasAdded",
          "type": "bool"
        }
      ],
      "stateMutability": "nonpayable",
      "type": "function"
    },
    {
      "inputs": [
        {
          "internalType": "string",
          "name": "orderId",
          "type": "string"
        },
        {
          "internalType": "string",
          "name": "url",
          "type": "string"
        }
      ],
      "name": "addTrackingUrl",
      "outputs": [],
      "stateMutability": "nonpayable",
      "type": "function"
    },
    {
      "inputs": [
        {
          "internalType": "string",
          "name": "",
          "type": "string"
        }
      ],
      "name": "buyerCart",
      "outputs": [
        {
          "internalType": "string",
          "name": "cartId",
          "type": "string"
        },
        {
          "internalType": "string",
          "name": "buyerId",
          "type": "string"
        },
        {
          "internalType": "bool",
          "name": "orderProcessed",
          "type": "bool"
        },
        {
          "internalType": "bool",
          "name": "isActive",
          "type": "bool"
        }
      ],
      "stateMutability": "view",
      "type": "function"
    },
    {
      "inputs": [
        {
          "internalType": "uint256",
          "name": "",
          "type": "uint256"
        }
      ],
      "name": "buyerIds",
      "outputs": [
        {
          "internalType": "string",
          "name": "",
          "type": "string"
        }
      ],
      "stateMutability": "view",
      "type": "function"
    },
    {
      "inputs": [
        {
          "internalType": "string",
          "name": "",
          "type": "string"
        },
        {
          "internalType": "uint256",
          "name": "",
          "type": "uint256"
        }
      ],
      "name": "buyerOrders",
      "outputs": [
        {
          "internalType": "string",
          "name": "orderId",
          "type": "string"
        },
        {
          "internalType": "string",
          "name": "buyerId",
          "type": "string"
        },
        {
          "internalType": "string",
          "name": "cartId",
          "type": "string"
        },
        {
          "internalType": "address",
          "name": "sender",
          "type": "address"
        },
        {
          "internalType": "enum Order.OrderStatus",
          "name": "orderStatus",
          "type": "uint8"
        },
        {
          "internalType": "uint256",
          "name": "totalPaid",
          "type": "uint256"
        },
        {
          "internalType": "bool",
          "name": "isCanceled",
          "type": "bool"
        },
        {
          "internalType": "bool",
          "name": "orderFulfilled",
          "type": "bool"
        },
        {
          "internalType": "bool",
          "name": "orderReturned",
          "type": "bool"
        },
        {
          "internalType": "bool",
          "name": "isOrderClosed",
          "type": "bool"
        }
      ],
      "stateMutability": "view",
      "type": "function"
    },
    {
      "inputs": [
        {
          "internalType": "string",
          "name": "",
          "type": "string"
        }
      ],
      "name": "buyerOrdersCount",
      "outputs": [
        {
          "internalType": "uint256",
          "name": "",
          "type": "uint256"
        }
      ],
      "stateMutability": "view",
      "type": "function"
    },
    {
      "inputs": [
        {
          "internalType": "string",
          "name": "",
          "type": "string"
        }
      ],
      "name": "buyers",
      "outputs": [
        {
          "internalType": "string",
          "name": "id",
          "type": "string"
        },
        {
          "internalType": "string",
          "name": "name",
          "type": "string"
        },
        {
          "internalType": "string",
          "name": "email",
          "type": "string"
        },
        {
          "internalType": "address",
          "name": "buyerAddress",
          "type": "address"
        },
        {
          "internalType": "bool",
          "name": "isActive",
          "type": "bool"
        }
      ],
      "stateMutability": "view",
      "type": "function"
    },
    {
      "inputs": [],
      "name": "buyersCount",
      "outputs": [
        {
          "internalType": "uint256",
          "name": "",
          "type": "uint256"
        }
      ],
      "stateMutability": "view",
      "type": "function"
    },
    {
      "inputs": [
        {
          "internalType": "string",
          "name": "",
          "type": "string"
        },
        {
          "internalType": "uint256",
          "name": "",
          "type": "uint256"
        }
      ],
      "name": "cartProducts",
      "outputs": [
        {
          "internalType": "string",
          "name": "id",
          "type": "string"
        },
        {
          "internalType": "string",
          "name": "sku",
          "type": "string"
        },
        {
          "internalType": "uint256",
          "name": "inStock",
          "type": "uint256"
        },
        {
          "internalType": "string",
          "name": "supplierId",
          "type": "string"
        },
        {
          "internalType": "string",
          "name": "metaDataURI",
          "type": "string"
        },
        {
          "internalType": "uint256",
          "name": "supplierPrice",
          "type": "uint256"
        },
        {
          "internalType": "uint256",
          "name": "merchantPrice",
          "type": "uint256"
        },
        {
          "internalType": "bool",
          "name": "isActive",
          "type": "bool"
        }
      ],
      "stateMutability": "view",
      "type": "function"
    },
    {
      "inputs": [
        {
          "internalType": "string",
          "name": "",
          "type": "string"
        }
      ],
      "name": "cartProductsCount",
      "outputs": [
        {
          "internalType": "uint256",
          "name": "",
          "type": "uint256"
        }
      ],
      "stateMutability": "view",
      "type": "function"
    },
    {
      "inputs": [
        {
          "internalType": "string",
          "name": "",
          "type": "string"
        }
      ],
      "name": "carts",
      "outputs": [
        {
          "internalType": "string",
          "name": "cartId",
          "type": "string"
        },
        {
          "internalType": "string",
          "name": "buyerId",
          "type": "string"
        },
        {
          "internalType": "bool",
          "name": "orderProcessed",
          "type": "bool"
        },
        {
          "internalType": "bool",
          "name": "isActive",
          "type": "bool"
        }
      ],
      "stateMutability": "view",
      "type": "function"
    },
    {
      "inputs": [
        {
          "internalType": "string",
          "name": "orderId",
          "type": "string"
        },
        {
          "internalType": "string",
          "name": "buyerId",
          "type": "string"
        },
        {
          "internalType": "string",
          "name": "cartId",
          "type": "string"
        },
        {
          "internalType": "uint256",
          "name": "totalPaid",
          "type": "uint256"
        }
      ],
      "name": "checkout",
      "outputs": [
        {
          "internalType": "bool",
          "name": "orderProcessed",
          "type": "bool"
        }
      ],
      "stateMutability": "payable",
      "type": "function"
    },
    {
      "inputs": [
        {
          "internalType": "string",
          "name": "",
          "type": "string"
        },
        {
          "internalType": "uint256",
          "name": "",
          "type": "uint256"
        }
      ],
      "name": "childMatrixItems",
      "outputs": [
        {
          "internalType": "string",
          "name": "id",
          "type": "string"
        },
        {
          "internalType": "string",
          "name": "sku",
          "type": "string"
        },
        {
          "internalType": "uint256",
          "name": "inStock",
          "type": "uint256"
        },
        {
          "internalType": "string",
          "name": "supplierId",
          "type": "string"
        },
        {
          "internalType": "string",
          "name": "metaDataURI",
          "type": "string"
        },
        {
          "internalType": "uint256",
          "name": "supplierPrice",
          "type": "uint256"
        },
        {
          "internalType": "uint256",
          "name": "merchantPrice",
          "type": "uint256"
        },
        {
          "internalType": "bool",
          "name": "isActive",
          "type": "bool"
        }
      ],
      "stateMutability": "view",
      "type": "function"
    },
    {
      "inputs": [],
      "name": "escrowAccountAddress",
      "outputs": [
        {
          "internalType": "address",
          "name": "",
          "type": "address"
        }
      ],
      "stateMutability": "view",
      "type": "function"
    },
    {
      "inputs": [
        {
          "internalType": "string",
          "name": "cartId",
          "type": "string"
        },
        {
          "internalType": "string",
          "name": "buyerId",
          "type": "string"
        }
      ],
      "name": "initializeBuyerCart",
      "outputs": [
        {
          "internalType": "bool",
          "name": "isInit",
          "type": "bool"
        }
      ],
      "stateMutability": "nonpayable",
      "type": "function"
    },
    {
      "inputs": [
        {
          "internalType": "uint256",
          "name": "",
          "type": "uint256"
        }
      ],
      "name": "merchants",
      "outputs": [
        {
          "internalType": "string",
          "name": "id",
          "type": "string"
        },
        {
          "internalType": "string",
          "name": "name",
          "type": "string"
        },
        {
          "internalType": "string",
          "name": "email",
          "type": "string"
        },
        {
          "internalType": "address",
          "name": "sellerAddress",
          "type": "address"
        },
        {
          "internalType": "bool",
          "name": "isSupplier",
          "type": "bool"
        },
        {
          "internalType": "bool",
          "name": "isActive",
          "type": "bool"
        },
        {
          "internalType": "bool",
          "name": "isRegistered",
          "type": "bool"
        },
        {
          "internalType": "bool",
          "name": "hasPaidGuarantee",
          "type": "bool"
        },
        {
          "internalType": "uint256",
          "name": "guranteePaid",
          "type": "uint256"
        }
      ],
      "stateMutability": "view",
      "type": "function"
    },
    {
      "inputs": [],
      "name": "merchantsCount",
      "outputs": [
        {
          "internalType": "uint256",
          "name": "",
          "type": "uint256"
        }
      ],
      "stateMutability": "view",
      "type": "function"
    },
    {
      "inputs": [
        {
          "internalType": "uint256",
          "name": "",
          "type": "uint256"
        }
      ],
      "name": "orderIds",
      "outputs": [
        {
          "internalType": "string",
          "name": "",
          "type": "string"
        }
      ],
      "stateMutability": "view",
      "type": "function"
    },
    {
      "inputs": [
        {
          "internalType": "string",
          "name": "",
          "type": "string"
        }
      ],
      "name": "orderTracking",
      "outputs": [
        {
          "internalType": "string",
          "name": "",
          "type": "string"
        }
      ],
      "stateMutability": "view",
      "type": "function"
    },
    {
      "inputs": [
        {
          "internalType": "string",
          "name": "",
          "type": "string"
        }
      ],
      "name": "orders",
      "outputs": [
        {
          "internalType": "string",
          "name": "orderId",
          "type": "string"
        },
        {
          "internalType": "string",
          "name": "buyerId",
          "type": "string"
        },
        {
          "internalType": "string",
          "name": "cartId",
          "type": "string"
        },
        {
          "internalType": "address",
          "name": "sender",
          "type": "address"
        },
        {
          "internalType": "enum Order.OrderStatus",
          "name": "orderStatus",
          "type": "uint8"
        },
        {
          "internalType": "uint256",
          "name": "totalPaid",
          "type": "uint256"
        },
        {
          "internalType": "bool",
          "name": "isCanceled",
          "type": "bool"
        },
        {
          "internalType": "bool",
          "name": "orderFulfilled",
          "type": "bool"
        },
        {
          "internalType": "bool",
          "name": "orderReturned",
          "type": "bool"
        },
        {
          "internalType": "bool",
          "name": "isOrderClosed",
          "type": "bool"
        }
      ],
      "stateMutability": "view",
      "type": "function"
    },
    {
      "inputs": [],
      "name": "owner",
      "outputs": [
        {
          "internalType": "address",
          "name": "",
          "type": "address"
        }
      ],
      "stateMutability": "view",
      "type": "function"
    },
    {
      "inputs": [
        {
          "internalType": "uint256",
          "name": "",
          "type": "uint256"
        }
      ],
      "name": "productIds",
      "outputs": [
        {
          "internalType": "string",
          "name": "",
          "type": "string"
        }
      ],
      "stateMutability": "view",
      "type": "function"
    },
    {
      "inputs": [
        {
          "internalType": "string",
          "name": "",
          "type": "string"
        }
      ],
      "name": "products",
      "outputs": [
        {
          "internalType": "string",
          "name": "id",
          "type": "string"
        },
        {
          "internalType": "string",
          "name": "sku",
          "type": "string"
        },
        {
          "internalType": "uint256",
          "name": "inStock",
          "type": "uint256"
        },
        {
          "internalType": "string",
          "name": "supplierId",
          "type": "string"
        },
        {
          "internalType": "string",
          "name": "metaDataURI",
          "type": "string"
        },
        {
          "internalType": "uint256",
          "name": "supplierPrice",
          "type": "uint256"
        },
        {
          "internalType": "uint256",
          "name": "merchantPrice",
          "type": "uint256"
        },
        {
          "internalType": "bool",
          "name": "isActive",
          "type": "bool"
        }
      ],
      "stateMutability": "view",
      "type": "function"
    },
    {
      "inputs": [],
      "name": "productsCount",
      "outputs": [
        {
          "internalType": "uint256",
          "name": "",
          "type": "uint256"
        }
      ],
      "stateMutability": "view",
      "type": "function"
    },
    {
      "inputs": [
        {
          "internalType": "string",
          "name": "buyerId",
          "type": "string"
        },
        {
          "internalType": "string",
          "name": "name",
          "type": "string"
        },
        {
          "internalType": "string",
          "name": "email",
          "type": "string"
        },
        {
          "internalType": "string",
          "name": "",
          "type": "string"
        },
        {
          "internalType": "string",
          "name": "cartId",
          "type": "string"
        },
        {
          "internalType": "address",
          "name": "buyerAddress",
          "type": "address"
        }
      ],
      "name": "registerBuyer",
      "outputs": [
        {
          "internalType": "bool",
          "name": "isRegistered",
          "type": "bool"
        }
      ],
      "stateMutability": "nonpayable",
      "type": "function"
    },
    {
      "inputs": [
        {
          "internalType": "string",
          "name": "id",
          "type": "string"
        },
        {
          "internalType": "string",
          "name": "name",
          "type": "string"
        },
        {
          "internalType": "string",
          "name": "email",
          "type": "string"
        },
        {
          "internalType": "bool",
          "name": "isSupplier",
          "type": "bool"
        }
      ],
      "name": "registerSeller",
      "outputs": [
        {
          "internalType": "bool",
          "name": "hasRegistered",
          "type": "bool"
        }
      ],
      "stateMutability": "payable",
      "type": "function"
    },
    {
      "inputs": [
        {
          "internalType": "uint256",
          "name": "",
          "type": "uint256"
        }
      ],
      "name": "sellerIds",
      "outputs": [
        {
          "internalType": "string",
          "name": "",
          "type": "string"
        }
      ],
      "stateMutability": "view",
      "type": "function"
    },
    {
      "inputs": [
        {
          "internalType": "string",
          "name": "",
          "type": "string"
        },
        {
          "internalType": "uint256",
          "name": "",
          "type": "uint256"
        }
      ],
      "name": "sellerProductsMapping",
      "outputs": [
        {
          "internalType": "string",
          "name": "id",
          "type": "string"
        },
        {
          "internalType": "string",
          "name": "sku",
          "type": "string"
        },
        {
          "internalType": "uint256",
          "name": "inStock",
          "type": "uint256"
        },
        {
          "internalType": "string",
          "name": "supplierId",
          "type": "string"
        },
        {
          "internalType": "string",
          "name": "metaDataURI",
          "type": "string"
        },
        {
          "internalType": "uint256",
          "name": "supplierPrice",
          "type": "uint256"
        },
        {
          "internalType": "uint256",
          "name": "merchantPrice",
          "type": "uint256"
        },
        {
          "internalType": "bool",
          "name": "isActive",
          "type": "bool"
        }
      ],
      "stateMutability": "view",
      "type": "function"
    },
    {
      "inputs": [
        {
          "internalType": "string",
          "name": "",
          "type": "string"
        }
      ],
      "name": "sellers",
      "outputs": [
        {
          "internalType": "string",
          "name": "id",
          "type": "string"
        },
        {
          "internalType": "string",
          "name": "name",
          "type": "string"
        },
        {
          "internalType": "string",
          "name": "email",
          "type": "string"
        },
        {
          "internalType": "address",
          "name": "sellerAddress",
          "type": "address"
        },
        {
          "internalType": "bool",
          "name": "isSupplier",
          "type": "bool"
        },
        {
          "internalType": "bool",
          "name": "isActive",
          "type": "bool"
        },
        {
          "internalType": "bool",
          "name": "isRegistered",
          "type": "bool"
        },
        {
          "internalType": "bool",
          "name": "hasPaidGuarantee",
          "type": "bool"
        },
        {
          "internalType": "uint256",
          "name": "guranteePaid",
          "type": "uint256"
        }
      ],
      "stateMutability": "view",
      "type": "function"
    },
    {
      "inputs": [],
      "name": "sellersCount",
      "outputs": [
        {
          "internalType": "uint256",
          "name": "",
          "type": "uint256"
        }
      ],
      "stateMutability": "view",
      "type": "function"
    },
    {
      "inputs": [
        {
          "internalType": "uint256",
          "name": "",
          "type": "uint256"
        }
      ],
      "name": "suppliers",
      "outputs": [
        {
          "internalType": "string",
          "name": "id",
          "type": "string"
        },
        {
          "internalType": "string",
          "name": "name",
          "type": "string"
        },
        {
          "internalType": "string",
          "name": "email",
          "type": "string"
        },
        {
          "internalType": "address",
          "name": "sellerAddress",
          "type": "address"
        },
        {
          "internalType": "bool",
          "name": "isSupplier",
          "type": "bool"
        },
        {
          "internalType": "bool",
          "name": "isActive",
          "type": "bool"
        },
        {
          "internalType": "bool",
          "name": "isRegistered",
          "type": "bool"
        },
        {
          "internalType": "bool",
          "name": "hasPaidGuarantee",
          "type": "bool"
        },
        {
          "internalType": "uint256",
          "name": "guranteePaid",
          "type": "uint256"
        }
      ],
      "stateMutability": "view",
      "type": "function"
    },
    {
      "inputs": [],
      "name": "suppliersCount",
      "outputs": [
        {
          "internalType": "uint256",
          "name": "",
          "type": "uint256"
        }
      ],
      "stateMutability": "view",
      "type": "function"
    },
    {
      "inputs": [],
      "name": "totalOrders",
      "outputs": [
        {
          "internalType": "uint256",
          "name": "",
          "type": "uint256"
        }
      ],
      "stateMutability": "view",
      "type": "function"
    }
  ],
  "bytecode": "0x60806040523480156200001157600080fd5b5060405162005a9b38038062005a9b8339818101604052810190620000379190620000d7565b816000806101000a81548173ffffffffffffffffffffffffffffffffffffffff021916908373ffffffffffffffffffffffffffffffffffffffff16021790555080600160006101000a81548173ffffffffffffffffffffffffffffffffffffffff021916908373ffffffffffffffffffffffffffffffffffffffff160217905550505062000166565b600081519050620000d1816200014c565b92915050565b60008060408385031215620000eb57600080fd5b6000620000fb85828601620000c0565b92505060206200010e85828601620000c0565b9150509250929050565b600062000125826200012c565b9050919050565b600073ffffffffffffffffffffffffffffffffffffffff82169050919050565b620001578162000118565b81146200016357600080fd5b50565b61592580620001766000396000f3fe6080604052600436106102045760003560e01c806384de1e0d11610118578063bad2be02116100a0578063cb51bba91161006f578063cb51bba9146108d8578063cea2312114610915578063cf0603961461095a578063e0df7bb614610997578063f8a6ff67146109c257610204565b8063bad2be02146107ef578063bc9eb64b1461082c578063bd84687c14610857578063c5ec00e71461089b57610204565b80638da5cb5b116100e75780638da5cb5b146106ec57806392c8823b146107175780639ae9711e1461075c578063a7ee103d14610787578063ba49a08c146107c457610204565b806384de1e0d146105fb57806389bb4d991461063857806389c8c7eb146106785780638b1e3dda146106a857610204565b806347174cce1161019b5780635f46c9201161016a5780635f46c920146104d457806364a6b4941461051157806366d4506e1461053c5780636f83bc09146105795780638060ea6b146105b657610204565b806347174cce146103e657806349bfc4c61461042c5780635de008c0146104695780635ef8bcb31461049457610204565b80631d834409116101d75780631d834409146103115780631f77e0231461033c57806323722084146103805780633edd8f4d146103bd57610204565b80630186a423146102095780630234efcb1461024d57806307fe01f71461028e5780631a948947146102cb575b600080fd5b34801561021557600080fd5b50610230600480360381019061022b91906146b9565b6109f2565b60405161024498979695949392919061515c565b60405180910390f35b34801561025957600080fd5b50610274600480360381019061026f91906146b9565b610c7d565b604051610285959493929190614fa1565b60405180910390f35b34801561029a57600080fd5b506102b560048036038101906102b09190614c7a565b610e8e565b6040516102c29190614f2c565b60405180910390f35b3480156102d757600080fd5b506102f260048036038101906102ed91906146b9565b610f3a565b6040516103089a999897969594939291906150ab565b60405180910390f35b34801561031d57600080fd5b5061032661119d565b6040516103339190615336565b60405180910390f35b34801561034857600080fd5b50610363600480360381019061035e9190614c26565b6111a3565b60405161037798979695949392919061515c565b60405180910390f35b34801561038c57600080fd5b506103a760048036038101906103a29190614c7a565b61144b565b6040516103b49190614f2c565b60405180910390f35b3480156103c957600080fd5b506103e460048036038101906103df919061473b565b6114f7565b005b3480156103f257600080fd5b5061040d60048036038101906104089190614c26565b61159c565b6040516104239a999897969594939291906150ab565b60405180910390f35b34801561043857600080fd5b50610453600480360381019061044e919061473b565b61181c565b6040516104609190614f11565b60405180910390f35b34801561047557600080fd5b5061047e611a6a565b60405161048b9190615336565b60405180910390f35b3480156104a057600080fd5b506104bb60048036038101906104b691906146b9565b611a70565b6040516104cb9493929190614f4e565b60405180910390f35b3480156104e057600080fd5b506104fb60048036038101906104f691906149fe565b611be0565b6040516105089190614f11565b60405180910390f35b34801561051d57600080fd5b50610526611fc2565b6040516105339190615336565b60405180910390f35b34801561054857600080fd5b50610563600480360381019061055e91906146b9565b611fc8565b6040516105709190615336565b60405180910390f35b34801561058557600080fd5b506105a0600480360381019061059b91906146b9565b611ff6565b6040516105ad9190615336565b60405180910390f35b3480156105c257600080fd5b506105dd60048036038101906105d891906146b9565b612024565b6040516105f299989796959493929190615009565b60405180910390f35b34801561060757600080fd5b50610622600480360381019061061d919061473b565b612274565b60405161062f9190614f11565b60405180910390f35b34801561064457600080fd5b5061065f600480360381019061065a91906146b9565b61235f565b60405161066f9493929190614f4e565b60405180910390f35b610692600480360381019061068d91906147a7565b6124cf565b60405161069f9190614f11565b60405180910390f35b3480156106b457600080fd5b506106cf60048036038101906106ca9190614c26565b612b7a565b6040516106e398979695949392919061515c565b60405180910390f35b3480156106f857600080fd5b50610701612e22565b60405161070e9190614ef6565b60405180910390f35b34801561072357600080fd5b5061073e60048036038101906107399190614c7a565b612e46565b60405161075399989796959493929190615009565b60405180910390f35b34801561076857600080fd5b50610771613090565b60405161077e9190615336565b60405180910390f35b34801561079357600080fd5b506107ae60048036038101906107a99190614852565b613096565b6040516107bb9190614f11565b60405180910390f35b3480156107d057600080fd5b506107d9613298565b6040516107e69190615336565b60405180910390f35b3480156107fb57600080fd5b5061081660048036038101906108119190614c7a565b61329e565b6040516108239190614f2c565b60405180910390f35b34801561083857600080fd5b5061084161334a565b60405161084e9190614ef6565b60405180910390f35b34801561086357600080fd5b5061087e60048036038101906108799190614c26565b613370565b60405161089298979695949392919061515c565b60405180910390f35b3480156108a757600080fd5b506108c260048036038101906108bd9190614b28565b613618565b6040516108cf9190614f11565b60405180910390f35b3480156108e457600080fd5b506108ff60048036038101906108fa9190614c7a565b6138fd565b60405161090c9190614f2c565b60405180910390f35b34801561092157600080fd5b5061093c60048036038101906109379190614c7a565b6139a9565b60405161095199989796959493929190615009565b60405180910390f35b34801561096657600080fd5b50610981600480360381019061097c91906146b9565b613bf3565b60405161098e9190614f2c565b60405180910390f35b3480156109a357600080fd5b506109ac613ca9565b6040516109b99190615336565b60405180910390f35b6109dc60048036038101906109d79190614953565b613caf565b6040516109e99190614f11565b60405180910390f35b600a81805160208101820180518482526020830160208501208183528095505050505050600091509050806000018054610a2b906154b9565b80601f0160208091040260200160405190810160405280929190818152602001828054610a57906154b9565b8015610aa45780601f10610a7957610100808354040283529160200191610aa4565b820191906000526020600020905b815481529060010190602001808311610a8757829003601f168201915b505050505090806001018054610ab9906154b9565b80601f0160208091040260200160405190810160405280929190818152602001828054610ae5906154b9565b8015610b325780601f10610b0757610100808354040283529160200191610b32565b820191906000526020600020905b815481529060010190602001808311610b1557829003601f168201915b505050505090806002015490806003018054610b4d906154b9565b80601f0160208091040260200160405190810160405280929190818152602001828054610b79906154b9565b8015610bc65780601f10610b9b57610100808354040283529160200191610bc6565b820191906000526020600020905b815481529060010190602001808311610ba957829003601f168201915b505050505090806004018054610bdb906154b9565b80601f0160208091040260200160405190810160405280929190818152602001828054610c07906154b9565b8015610c545780601f10610c2957610100808354040283529160200191610c54565b820191906000526020600020905b815481529060010190602001808311610c3757829003601f168201915b5050505050908060050154908060060154908060070160009054906101000a900460ff16905088565b600e81805160208101820180518482526020830160208501208183528095505050505050600091509050806000018054610cb6906154b9565b80601f0160208091040260200160405190810160405280929190818152602001828054610ce2906154b9565b8015610d2f5780601f10610d0457610100808354040283529160200191610d2f565b820191906000526020600020905b815481529060010190602001808311610d1257829003601f168201915b505050505090806001018054610d44906154b9565b80601f0160208091040260200160405190810160405280929190818152602001828054610d70906154b9565b8015610dbd5780601f10610d9257610100808354040283529160200191610dbd565b820191906000526020600020905b815481529060010190602001808311610da057829003601f168201915b505050505090806002018054610dd2906154b9565b80601f0160208091040260200160405190810160405280929190818152602001828054610dfe906154b9565b8015610e4b5780601f10610e2057610100808354040283529160200191610e4b565b820191906000526020600020905b815481529060010190602001808311610e2e57829003601f168201915b5050505050908060030160009054906101000a900473ffffffffffffffffffffffffffffffffffffffff16908060030160149054906101000a900460ff16905085565b60118181548110610e9e57600080fd5b906000526020600020016000915090508054610eb9906154b9565b80601f0160208091040260200160405190810160405280929190818152602001828054610ee5906154b9565b8015610f325780601f10610f0757610100808354040283529160200191610f32565b820191906000526020600020905b815481529060010190602001808311610f1557829003601f168201915b505050505081565b601681805160208101820180518482526020830160208501208183528095505050505050600091509050806000018054610f73906154b9565b80601f0160208091040260200160405190810160405280929190818152602001828054610f9f906154b9565b8015610fec5780601f10610fc157610100808354040283529160200191610fec565b820191906000526020600020905b815481529060010190602001808311610fcf57829003601f168201915b505050505090806001018054611001906154b9565b80601f016020809104026020016040519081016040528092919081815260200182805461102d906154b9565b801561107a5780601f1061104f5761010080835404028352916020019161107a565b820191906000526020600020905b81548152906001019060200180831161105d57829003601f168201915b50505050509080600201805461108f906154b9565b80601f01602080910402602001604051908101604052809291908181526020018280546110bb906154b9565b80156111085780601f106110dd57610100808354040283529160200191611108565b820191906000526020600020905b8154815290600101906020018083116110eb57829003601f168201915b5050505050908060030160009054906101000a900473ffffffffffffffffffffffffffffffffffffffff16908060030160149054906101000a900460ff16908060040154908060050160009054906101000a900460ff16908060050160019054906101000a900460ff16908060050160029054906101000a900460ff16908060050160039054906101000a900460ff1690508a565b601b5481565b60138280516020810182018051848252602083016020850120818352809550505050505081815481106111d557600080fd5b9060005260206000209060080201600091509150508060000180546111f9906154b9565b80601f0160208091040260200160405190810160405280929190818152602001828054611225906154b9565b80156112725780601f1061124757610100808354040283529160200191611272565b820191906000526020600020905b81548152906001019060200180831161125557829003601f168201915b505050505090806001018054611287906154b9565b80601f01602080910402602001604051908101604052809291908181526020018280546112b3906154b9565b80156113005780601f106112d557610100808354040283529160200191611300565b820191906000526020600020905b8154815290600101906020018083116112e357829003601f168201915b50505050509080600201549080600301805461131b906154b9565b80601f0160208091040260200160405190810160405280929190818152602001828054611347906154b9565b80156113945780601f1061136957610100808354040283529160200191611394565b820191906000526020600020905b81548152906001019060200180831161137757829003601f168201915b5050505050908060040180546113a9906154b9565b80601f01602080910402602001604051908101604052809291908181526020018280546113d5906154b9565b80156114225780601f106113f757610100808354040283529160200191611422565b820191906000526020600020905b81548152906001019060200180831161140557829003601f168201915b5050505050908060050154908060060154908060070160009054906101000a900460ff16905088565b601a818154811061145b57600080fd5b906000526020600020016000915090508054611476906154b9565b80601f01602080910402602001604051908101604052809291908181526020018280546114a2906154b9565b80156114ef5780601f106114c4576101008083540402835291602001916114ef565b820191906000526020600020905b8154815290600101906020018083116114d257829003601f168201915b505050505081565b6016826040516115079190614eca565b908152602001604051809103902060050160019054906101000a900460ff16611565576040517f08c379a000000000000000000000000000000000000000000000000000000000815260040161155c906151f6565b60405180910390fd5b806019836040516115769190614eca565b9081526020016040518091039020908051906020019061159792919061443a565b505050565b60178280516020810182018051848252602083016020850120818352809550505050505081815481106115ce57600080fd5b9060005260206000209060060201600091509150508060000180546115f2906154b9565b80601f016020809104026020016040519081016040528092919081815260200182805461161e906154b9565b801561166b5780601f106116405761010080835404028352916020019161166b565b820191906000526020600020905b81548152906001019060200180831161164e57829003601f168201915b505050505090806001018054611680906154b9565b80601f01602080910402602001604051908101604052809291908181526020018280546116ac906154b9565b80156116f95780601f106116ce576101008083540402835291602001916116f9565b820191906000526020600020905b8154815290600101906020018083116116dc57829003601f168201915b50505050509080600201805461170e906154b9565b80601f016020809104026020016040519081016040528092919081815260200182805461173a906154b9565b80156117875780601f1061175c57610100808354040283529160200191611787565b820191906000526020600020905b81548152906001019060200180831161176a57829003601f168201915b5050505050908060030160009054906101000a900473ffffffffffffffffffffffffffffffffffffffff16908060030160149054906101000a900460ff16908060040154908060050160009054906101000a900460ff16908060050160019054906101000a900460ff16908060050160029054906101000a900460ff16908060050160039054906101000a900460ff1690508a565b600060128360405161182e9190614eca565b908152602001604051809103902060020160019054906101000a900460ff1661188c576040517f08c379a000000000000000000000000000000000000000000000000000000000815260040161188390615276565b60405180910390fd5b600a8260405161189c9190614eca565b908152602001604051809103902060070160009054906101000a900460ff166118fa576040517f08c379a00000000000000000000000000000000000000000000000000000000081526004016118f1906152b6565b60405180910390fd5b60138360405161190a9190614eca565b9081526020016040518091039020600a836040516119289190614eca565b908152602001604051809103902090806001815401808255809150506001900390600052602060002090600802016000909190919091506000820181600001908054611973906154b9565b61197e9291906144c0565b506001820181600101908054611993906154b9565b61199e9291906144c0565b506002820154816002015560038201816003019080546119bd906154b9565b6119c89291906144c0565b5060048201816004019080546119dd906154b9565b6119e89291906144c0565b5060058201548160050155600682015481600601556007820160009054906101000a900460ff168160070160006101000a81548160ff0219169083151502179055505050601483604051611a3c9190614eca565b90815260200160405180910390206000815480929190611a5b9061551c565b91905055506001905092915050565b60085481565b601281805160208101820180518482526020830160208501208183528095505050505050600091509050806000018054611aa9906154b9565b80601f0160208091040260200160405190810160405280929190818152602001828054611ad5906154b9565b8015611b225780601f10611af757610100808354040283529160200191611b22565b820191906000526020600020905b815481529060010190602001808311611b0557829003601f168201915b505050505090806001018054611b37906154b9565b80601f0160208091040260200160405190810160405280929190818152602001828054611b63906154b9565b8015611bb05780601f10611b8557610100808354040283529160200191611bb0565b820191906000526020600020905b815481529060010190602001808311611b9357829003601f168201915b5050505050908060020160009054906101000a900460ff16908060020160019054906101000a900460ff16905084565b6000600485604051611bf29190614eca565b908152602001604051809103902060030160159054906101000a900460ff16611c50576040517f08c379a0000000000000000000000000000000000000000000000000000000008152600401611c4790615316565b60405180910390fd5b60006040518061010001604052808a81526020018981526020018881526020018781526020018681526020018581526020018481526020016001151581525090506001915080600a8a604051611ca69190614eca565b90815260200160405180910390206000820151816000019080519060200190611cd092919061443a565b506020820151816001019080519060200190611ced92919061443a565b50604082015181600201556060820151816003019080519060200190611d1492919061443a565b506080820151816004019080519060200190611d3192919061443a565b5060a0820151816005015560c0820151816006015560e08201518160070160006101000a81548160ff021916908315150217905550905050600d89908060018154018082558091505060019003906000526020600020016000909190919091509080519060200190611da492919061443a565b50600b8a604051611db59190614eca565b90815260200160405180910390208190806001815401808255809150506001900390600052602060002090600802016000909190919091506000820151816000019080519060200190611e0992919061443a565b506020820151816001019080519060200190611e2692919061443a565b50604082015181600201556060820151816003019080519060200190611e4d92919061443a565b506080820151816004019080519060200190611e6a92919061443a565b5060a0820151816005015560c0820151816006015560e08201518160070160006101000a81548160ff0219169083151502179055505050600586604051611eb19190614eca565b90815260200160405180910390208190806001815401808255809150506001900390600052602060002090600802016000909190919091506000820151816000019080519060200190611f0592919061443a565b506020820151816001019080519060200190611f2292919061443a565b50604082015181600201556060820151816003019080519060200190611f4992919061443a565b506080820151816004019080519060200190611f6692919061443a565b5060a0820151816005015560c0820151816006015560e08201518160070160006101000a81548160ff0219169083151502179055505050600c6000815480929190611fb09061551c565b91905055505098975050505050505050565b60095481565b6018818051602081018201805184825260208301602085012081835280955050505050506000915090505481565b6014818051602081018201805184825260208301602085012081835280955050505050506000915090505481565b60048180516020810182018051848252602083016020850120818352809550505050505060009150905080600001805461205d906154b9565b80601f0160208091040260200160405190810160405280929190818152602001828054612089906154b9565b80156120d65780601f106120ab576101008083540402835291602001916120d6565b820191906000526020600020905b8154815290600101906020018083116120b957829003601f168201915b5050505050908060010180546120eb906154b9565b80601f0160208091040260200160405190810160405280929190818152602001828054612117906154b9565b80156121645780601f1061213957610100808354040283529160200191612164565b820191906000526020600020905b81548152906001019060200180831161214757829003601f168201915b505050505090806002018054612179906154b9565b80601f01602080910402602001604051908101604052809291908181526020018280546121a5906154b9565b80156121f25780601f106121c7576101008083540402835291602001916121f2565b820191906000526020600020905b8154815290600101906020018083116121d557829003601f168201915b5050505050908060030160009054906101000a900473ffffffffffffffffffffffffffffffffffffffff16908060030160149054906101000a900460ff16908060030160159054906101000a900460ff16908060030160169054906101000a900460ff16908060030160179054906101000a900460ff16908060040154905089565b6000806040518060800160405280858152602001848152602001600015158152602001600115158152509050806012856040516122b19190614eca565b908152602001604051809103902060008201518160000190805190602001906122db92919061443a565b5060208201518160010190805190602001906122f892919061443a565b5060408201518160020160006101000a81548160ff02191690831515021790555060608201518160020160016101000a81548160ff0219169083151502179055509050506015600081548092919061234f9061551c565b9190505550600191505092915050565b600f81805160208101820180518482526020830160208501208183528095505050505050600091509050806000018054612398906154b9565b80601f01602080910402602001604051908101604052809291908181526020018280546123c4906154b9565b80156124115780601f106123e657610100808354040283529160200191612411565b820191906000526020600020905b8154815290600101906020018083116123f457829003601f168201915b505050505090806001018054612426906154b9565b80601f0160208091040260200160405190810160405280929190818152602001828054612452906154b9565b801561249f5780601f106124745761010080835404028352916020019161249f565b820191906000526020600020905b81548152906001019060200180831161248257829003601f168201915b5050505050908060020160009054906101000a900460ff16908060020160019054906101000a900460ff16905084565b600060056124dc3461441d565b1473__$1cbe03e533374aa1525b74d371c112da96$__6346a9766a6040518163ffffffff1660e01b815260040160006040518083038186803b15801561252157600080fd5b505af4158015612535573d6000803e3d6000fd5b505050506040513d6000823e3d601f19601f8201168201806040525081019061255e91906146fa565b9061259f576040517f08c379a00000000000000000000000000000000000000000000000000000000081526004016125969190614f2c565b60405180910390fd5b5060008060009054906101000a900473ffffffffffffffffffffffffffffffffffffffff1673ffffffffffffffffffffffffffffffffffffffff16346040516125e790614ee1565b60006040518083038185875af1925050503d8060008114612624576040519150601f19603f3d011682016040523d82523d6000602084013e612629565b606091505b505090508061266d576040517f08c379a000000000000000000000000000000000000000000000000000000000815260040161266490615216565b60405180910390fd5b60006040518061012001604052808881526020018781526020018681526020013373ffffffffffffffffffffffffffffffffffffffff16815260200185151581526020016001151581526020016001151581526020016001151581526020016126d53461441d565b8152509050806004886040516126eb9190614eca565b9081526020016040518091039020600082015181600001908051906020019061271592919061443a565b50602082015181600101908051906020019061273292919061443a565b50604082015181600201908051906020019061274f92919061443a565b5060608201518160030160006101000a81548173ffffffffffffffffffffffffffffffffffffffff021916908373ffffffffffffffffffffffffffffffffffffffff16021790555060808201518160030160146101000a81548160ff02191690831515021790555060a08201518160030160156101000a81548160ff02191690831515021790555060c08201518160030160166101000a81548160ff02191690831515021790555060e08201518160030160176101000a81548160ff0219169083151502179055506101008201518160040155905050600192508361298a576002819080600181540180825580915050600190039060005260206000209060050201600090919091909150600082015181600001908051906020019061287692919061443a565b50602082015181600101908051906020019061289392919061443a565b5060408201518160020190805190602001906128b092919061443a565b5060608201518160030160006101000a81548173ffffffffffffffffffffffffffffffffffffffff021916908373ffffffffffffffffffffffffffffffffffffffff16021790555060808201518160030160146101000a81548160ff02191690831515021790555060a08201518160030160156101000a81548160ff02191690831515021790555060c08201518160030160166101000a81548160ff02191690831515021790555060e08201518160030160176101000a81548160ff02191690831515021790555061010082015181600401555050612ae2565b600381908060018154018082558091505060019003906000526020600020906005020160009091909190915060008201518160000190805190602001906129d292919061443a565b5060208201518160010190805190602001906129ef92919061443a565b506040820151816002019080519060200190612a0c92919061443a565b5060608201518160030160006101000a81548173ffffffffffffffffffffffffffffffffffffffff021916908373ffffffffffffffffffffffffffffffffffffffff16021790555060808201518160030160146101000a81548160ff02191690831515021790555060a08201518160030160156101000a81548160ff02191690831515021790555060c08201518160030160166101000a81548160ff02191690831515021790555060e08201518160030160176101000a81548160ff021916908315150217905550610100820151816004015550505b83612b035760086000815480929190612afa9061551c565b91905055612b1b565b60096000815480929190612b169061551c565b919050555b50600687908060018154018082558091505060019003906000526020600020016000909190919091509080519060200190612b5792919061443a565b5060076000815480929190612b6b9061551c565b91905055505050949350505050565b6005828051602081018201805184825260208301602085012081835280955050505050508181548110612bac57600080fd5b906000526020600020906008020160009150915050806000018054612bd0906154b9565b80601f0160208091040260200160405190810160405280929190818152602001828054612bfc906154b9565b8015612c495780601f10612c1e57610100808354040283529160200191612c49565b820191906000526020600020905b815481529060010190602001808311612c2c57829003601f168201915b505050505090806001018054612c5e906154b9565b80601f0160208091040260200160405190810160405280929190818152602001828054612c8a906154b9565b8015612cd75780601f10612cac57610100808354040283529160200191612cd7565b820191906000526020600020905b815481529060010190602001808311612cba57829003601f168201915b505050505090806002015490806003018054612cf2906154b9565b80601f0160208091040260200160405190810160405280929190818152602001828054612d1e906154b9565b8015612d6b5780601f10612d4057610100808354040283529160200191612d6b565b820191906000526020600020905b815481529060010190602001808311612d4e57829003601f168201915b505050505090806004018054612d80906154b9565b80601f0160208091040260200160405190810160405280929190818152602001828054612dac906154b9565b8015612df95780601f10612dce57610100808354040283529160200191612df9565b820191906000526020600020905b815481529060010190602001808311612ddc57829003601f168201915b5050505050908060050154908060060154908060070160009054906101000a900460ff16905088565b60008054906101000a900473ffffffffffffffffffffffffffffffffffffffff1681565b60028181548110612e5657600080fd5b9060005260206000209060050201600091509050806000018054612e79906154b9565b80601f0160208091040260200160405190810160405280929190818152602001828054612ea5906154b9565b8015612ef25780601f10612ec757610100808354040283529160200191612ef2565b820191906000526020600020905b815481529060010190602001808311612ed557829003601f168201915b505050505090806001018054612f07906154b9565b80601f0160208091040260200160405190810160405280929190818152602001828054612f33906154b9565b8015612f805780601f10612f5557610100808354040283529160200191612f80565b820191906000526020600020905b815481529060010190602001808311612f6357829003601f168201915b505050505090806002018054612f95906154b9565b80601f0160208091040260200160405190810160405280929190818152602001828054612fc1906154b9565b801561300e5780601f10612fe35761010080835404028352916020019161300e565b820191906000526020600020905b815481529060010190602001808311612ff157829003601f168201915b5050505050908060030160009054906101000a900473ffffffffffffffffffffffffffffffffffffffff16908060030160149054906101000a900460ff16908060030160159054906101000a900460ff16908060030160169054906101000a900460ff16908060030160179054906101000a900460ff16908060040154905089565b60075481565b6000600e876040516130a89190614eca565b908152602001604051809103902060030160149054906101000a900460ff16613106576040517f08c379a00000000000000000000000000000000000000000000000000000000081526004016130fd90615236565b60405180910390fd5b60006040518060a001604052808981526020018881526020018781526020018473ffffffffffffffffffffffffffffffffffffffff1681526020016001151581525090506131548489612274565b5080600e896040516131669190614eca565b9081526020016040518091039020600082015181600001908051906020019061319092919061443a565b5060208201518160010190805190602001906131ad92919061443a565b5060408201518160020190805190602001906131ca92919061443a565b5060608201518160030160006101000a81548173ffffffffffffffffffffffffffffffffffffffff021916908373ffffffffffffffffffffffffffffffffffffffff16021790555060808201518160030160146101000a81548160ff021916908315150217905550905050601060008154809291906132489061551c565b919050555060118890806001815401808255809150506001900390600052602060002001600090919091909150908051906020019061328892919061443a565b5060019150509695505050505050565b60105481565b600681815481106132ae57600080fd5b9060005260206000200160009150905080546132c9906154b9565b80601f01602080910402602001604051908101604052809291908181526020018280546132f5906154b9565b80156133425780601f1061331757610100808354040283529160200191613342565b820191906000526020600020905b81548152906001019060200180831161332557829003601f168201915b505050505081565b600160009054906101000a900473ffffffffffffffffffffffffffffffffffffffff1681565b600b8280516020810182018051848252602083016020850120818352809550505050505081815481106133a257600080fd5b9060005260206000209060080201600091509150508060000180546133c6906154b9565b80601f01602080910402602001604051908101604052809291908181526020018280546133f2906154b9565b801561343f5780601f106134145761010080835404028352916020019161343f565b820191906000526020600020905b81548152906001019060200180831161342257829003601f168201915b505050505090806001018054613454906154b9565b80601f0160208091040260200160405190810160405280929190818152602001828054613480906154b9565b80156134cd5780601f106134a2576101008083540402835291602001916134cd565b820191906000526020600020905b8154815290600101906020018083116134b057829003601f168201915b5050505050908060020154908060030180546134e8906154b9565b80601f0160208091040260200160405190810160405280929190818152602001828054613514906154b9565b80156135615780601f1061353657610100808354040283529160200191613561565b820191906000526020600020905b81548152906001019060200180831161354457829003601f168201915b505050505090806004018054613576906154b9565b80601f01602080910402602001604051908101604052809291908181526020018280546135a2906154b9565b80156135ef5780601f106135c4576101008083540402835291602001916135ef565b820191906000526020600020905b8154815290600101906020018083116135d257829003601f168201915b5050505050908060050154908060060154908060070160009054906101000a900460ff16905088565b600060048560405161362a9190614eca565b908152602001604051809103902060030160159054906101000a900460ff16613688576040517f08c379a000000000000000000000000000000000000000000000000000000000815260040161367f90615316565b60405180910390fd5b60006040518061010001604052808a815260200189815260200188815260200187815260200186815260200185815260200184815260200160011515815250905080600a8a6040516136da9190614eca565b9081526020016040518091039020600082015181600001908051906020019061370492919061443a565b50602082015181600101908051906020019061372192919061443a565b5060408201518160020155606082015181600301908051906020019061374892919061443a565b50608082015181600401908051906020019061376592919061443a565b5060a0820151816005015560c0820151816006015560e08201518160070160006101000a81548160ff021916908315150217905550905050600d899080600181540180825580915050600190039060005260206000200160009091909190915090805190602001906137d892919061443a565b506005866040516137e99190614eca565b9081526020016040518091039020819080600181540180825580915050600190039060005260206000209060080201600090919091909150600082015181600001908051906020019061383d92919061443a565b50602082015181600101908051906020019061385a92919061443a565b5060408201518160020155606082015181600301908051906020019061388192919061443a565b50608082015181600401908051906020019061389e92919061443a565b5060a0820151816005015560c0820151816006015560e08201518160070160006101000a81548160ff021916908315150217905550505060019150600c60008154809291906138ec9061551c565b919050555050979650505050505050565b600d818154811061390d57600080fd5b906000526020600020016000915090508054613928906154b9565b80601f0160208091040260200160405190810160405280929190818152602001828054613954906154b9565b80156139a15780601f10613976576101008083540402835291602001916139a1565b820191906000526020600020905b81548152906001019060200180831161398457829003601f168201915b505050505081565b600381815481106139b957600080fd5b90600052602060002090600502016000915090508060000180546139dc906154b9565b80601f0160208091040260200160405190810160405280929190818152602001828054613a08906154b9565b8015613a555780601f10613a2a57610100808354040283529160200191613a55565b820191906000526020600020905b815481529060010190602001808311613a3857829003601f168201915b505050505090806001018054613a6a906154b9565b80601f0160208091040260200160405190810160405280929190818152602001828054613a96906154b9565b8015613ae35780601f10613ab857610100808354040283529160200191613ae3565b820191906000526020600020905b815481529060010190602001808311613ac657829003601f168201915b505050505090806002018054613af8906154b9565b80601f0160208091040260200160405190810160405280929190818152602001828054613b24906154b9565b8015613b715780601f10613b4657610100808354040283529160200191613b71565b820191906000526020600020905b815481529060010190602001808311613b5457829003601f168201915b5050505050908060030160009054906101000a900473ffffffffffffffffffffffffffffffffffffffff16908060030160149054906101000a900460ff16908060030160159054906101000a900460ff16908060030160169054906101000a900460ff16908060030160179054906101000a900460ff16908060040154905089565b6019818051602081018201805184825260208301602085012081835280955050505050506000915090508054613c28906154b9565b80601f0160208091040260200160405190810160405280929190818152602001828054613c54906154b9565b8015613ca15780601f10613c7657610100808354040283529160200191613ca1565b820191906000526020600020905b815481529060010190602001808311613c8457829003601f168201915b505050505081565b600c5481565b6000600e84604051613cc19190614eca565b908152602001604051809103902060030160149054906101000a900460ff16613d1f576040517f08c379a0000000000000000000000000000000000000000000000000000000008152600401613d1690615276565b60405180910390fd5b601283604051613d2f9190614eca565b908152602001604051809103902060020160019054906101000a900460ff16613d8d576040517f08c379a0000000000000000000000000000000000000000000000000000000008152600401613d8490615276565b60405180910390fd5b6000601484604051613d9f9190614eca565b90815260200160405180910390205411613dee576040517f08c379a0000000000000000000000000000000000000000000000000000000008152600401613de590615296565b60405180910390fd5b60008211613e31576040517f08c379a0000000000000000000000000000000000000000000000000000000008152600401613e28906152f6565b60405180910390fd5b613e3a3461441d565b8214613e7b576040517f08c379a0000000000000000000000000000000000000000000000000000000008152600401613e7290615256565b60405180910390fd5b60006040518061014001604052808781526020018681526020018581526020013373ffffffffffffffffffffffffffffffffffffffff16815260200160006003811115613ef1577f4e487b7100000000000000000000000000000000000000000000000000000000600052602160045260246000fd5b81526020018481526020016000151581526020016000151581526020016000151581526020016000151581525090506000600160009054906101000a900473ffffffffffffffffffffffffffffffffffffffff1673ffffffffffffffffffffffffffffffffffffffff1634604051613f6890614ee1565b60006040518083038185875af1925050503d8060008114613fa5576040519150601f19603f3d011682016040523d82523d6000602084013e613faa565b606091505b5050905080613fee576040517f08c379a0000000000000000000000000000000000000000000000000000000008152600401613fe5906152d6565b60405180910390fd5b81601688604051613fff9190614eca565b9081526020016040518091039020600082015181600001908051906020019061402992919061443a565b50602082015181600101908051906020019061404692919061443a565b50604082015181600201908051906020019061406392919061443a565b5060608201518160030160006101000a81548173ffffffffffffffffffffffffffffffffffffffff021916908373ffffffffffffffffffffffffffffffffffffffff16021790555060808201518160030160146101000a81548160ff021916908360038111156140fc577f4e487b7100000000000000000000000000000000000000000000000000000000600052602160045260246000fd5b021790555060a0820151816004015560c08201518160050160006101000a81548160ff02191690831515021790555060e08201518160050160016101000a81548160ff0219169083151502179055506101008201518160050160026101000a81548160ff0219169083151502179055506101208201518160050160036101000a81548160ff0219169083151502179055509050506017866040516141a09190614eca565b908152602001604051809103902082908060018154018082558091505060019003906000526020600020906006020160009091909190915060008201518160000190805190602001906141f492919061443a565b50602082015181600101908051906020019061421192919061443a565b50604082015181600201908051906020019061422e92919061443a565b5060608201518160030160006101000a81548173ffffffffffffffffffffffffffffffffffffffff021916908373ffffffffffffffffffffffffffffffffffffffff16021790555060808201518160030160146101000a81548160ff021916908360038111156142c7577f4e487b7100000000000000000000000000000000000000000000000000000000600052602160045260246000fd5b021790555060a0820151816004015560c08201518160050160006101000a81548160ff02191690831515021790555060e08201518160050160016101000a81548160ff0219169083151502179055506101008201518160050160026101000a81548160ff0219169083151502179055506101208201518160050160036101000a81548160ff021916908315150217905550505060188660405161436a9190614eca565b908152602001604051809103902060008154809291906143899061551c565b9190505550601b60008154809291906143a19061551c565b9190505550600f856040516143b69190614eca565b9081526020016040518091039020600080820160006143d5919061454d565b6001820160006143e5919061454d565b6002820160006101000a81549060ff02191690556002820160016101000a81549060ff02191690555050600192505050949350505050565b6000670de0b6b3a76400008261443391906153d9565b9050919050565b828054614446906154b9565b90600052602060002090601f01602090048101928261446857600085556144af565b82601f1061448157805160ff19168380011785556144af565b828001600101855582156144af579182015b828111156144ae578251825591602001919060010190614493565b5b5090506144bc919061458d565b5090565b8280546144cc906154b9565b90600052602060002090601f0160209004810192826144ee576000855561453c565b82601f106144ff578054855561453c565b8280016001018555821561453c57600052602060002091601f016020900482015b8281111561453b578254825591600101919060010190614520565b5b509050614549919061458d565b5090565b508054614559906154b9565b6000825580601f1061456b575061458a565b601f016020900490600052602060002090810190614589919061458d565b5b50565b5b808211156145a657600081600090555060010161458e565b5090565b60006145bd6145b884615376565b615351565b9050828152602081018484840111156145d557600080fd5b6145e0848285615477565b509392505050565b60006145fb6145f684615376565b615351565b90508281526020810184848401111561461357600080fd5b61461e848285615486565b509392505050565b600081359050614635816158aa565b92915050565b60008135905061464a816158c1565b92915050565b600082601f83011261466157600080fd5b81356146718482602086016145aa565b91505092915050565b600082601f83011261468b57600080fd5b815161469b8482602086016145e8565b91505092915050565b6000813590506146b3816158d8565b92915050565b6000602082840312156146cb57600080fd5b600082013567ffffffffffffffff8111156146e557600080fd5b6146f184828501614650565b91505092915050565b60006020828403121561470c57600080fd5b600082015167ffffffffffffffff81111561472657600080fd5b6147328482850161467a565b91505092915050565b6000806040838503121561474e57600080fd5b600083013567ffffffffffffffff81111561476857600080fd5b61477485828601614650565b925050602083013567ffffffffffffffff81111561479157600080fd5b61479d85828601614650565b9150509250929050565b600080600080608085870312156147bd57600080fd5b600085013567ffffffffffffffff8111156147d757600080fd5b6147e387828801614650565b945050602085013567ffffffffffffffff81111561480057600080fd5b61480c87828801614650565b935050604085013567ffffffffffffffff81111561482957600080fd5b61483587828801614650565b92505060606148468782880161463b565b91505092959194509250565b60008060008060008060c0878903121561486b57600080fd5b600087013567ffffffffffffffff81111561488557600080fd5b61489189828a01614650565b965050602087013567ffffffffffffffff8111156148ae57600080fd5b6148ba89828a01614650565b955050604087013567ffffffffffffffff8111156148d757600080fd5b6148e389828a01614650565b945050606087013567ffffffffffffffff81111561490057600080fd5b61490c89828a01614650565b935050608087013567ffffffffffffffff81111561492957600080fd5b61493589828a01614650565b92505060a061494689828a01614626565b9150509295509295509295565b6000806000806080858703121561496957600080fd5b600085013567ffffffffffffffff81111561498357600080fd5b61498f87828801614650565b945050602085013567ffffffffffffffff8111156149ac57600080fd5b6149b887828801614650565b935050604085013567ffffffffffffffff8111156149d557600080fd5b6149e187828801614650565b92505060606149f2878288016146a4565b91505092959194509250565b600080600080600080600080610100898b031215614a1b57600080fd5b600089013567ffffffffffffffff811115614a3557600080fd5b614a418b828c01614650565b985050602089013567ffffffffffffffff811115614a5e57600080fd5b614a6a8b828c01614650565b975050604089013567ffffffffffffffff811115614a8757600080fd5b614a938b828c01614650565b9650506060614aa48b828c016146a4565b955050608089013567ffffffffffffffff811115614ac157600080fd5b614acd8b828c01614650565b94505060a089013567ffffffffffffffff811115614aea57600080fd5b614af68b828c01614650565b93505060c0614b078b828c016146a4565b92505060e0614b188b828c016146a4565b9150509295985092959890939650565b600080600080600080600060e0888a031215614b4357600080fd5b600088013567ffffffffffffffff811115614b5d57600080fd5b614b698a828b01614650565b975050602088013567ffffffffffffffff811115614b8657600080fd5b614b928a828b01614650565b9650506040614ba38a828b016146a4565b955050606088013567ffffffffffffffff811115614bc057600080fd5b614bcc8a828b01614650565b945050608088013567ffffffffffffffff811115614be957600080fd5b614bf58a828b01614650565b93505060a0614c068a828b016146a4565b92505060c0614c178a828b016146a4565b91505092959891949750929550565b60008060408385031215614c3957600080fd5b600083013567ffffffffffffffff811115614c5357600080fd5b614c5f85828601614650565b9250506020614c70858286016146a4565b9150509250929050565b600060208284031215614c8c57600080fd5b6000614c9a848285016146a4565b91505092915050565b614cac8161540a565b82525050565b614cbb8161541c565b82525050565b614cca81615465565b82525050565b6000614cdb826153a7565b614ce581856153bd565b9350614cf5818560208601615486565b614cfe81615650565b840191505092915050565b6000614d14826153a7565b614d1e81856153ce565b9350614d2e818560208601615486565b80840191505092915050565b6000614d476013836153bd565b9150614d5282615661565b602082019050919050565b6000614d6a6023836153bd565b9150614d758261568a565b604082019050919050565b6000614d8d6013836153bd565b9150614d98826156d9565b602082019050919050565b6000614db06017836153bd565b9150614dbb82615702565b602082019050919050565b6000614dd3602c836153bd565b9150614dde8261572b565b604082019050919050565b6000614df6600d836153bd565b9150614e018261577a565b602082019050919050565b6000614e196011836153bd565b9150614e24826157a3565b602082019050919050565b6000614e3c6037836153bd565b9150614e47826157cc565b604082019050919050565b6000614e5f6008836153bd565b9150614e6a8261581b565b602082019050919050565b6000614e826000836153b2565b9150614e8d82615844565b600082019050919050565b6000614ea56021836153bd565b9150614eb082615847565b604082019050919050565b614ec48161545b565b82525050565b6000614ed68284614d09565b915081905092915050565b6000614eec82614e75565b9150819050919050565b6000602082019050614f0b6000830184614ca3565b92915050565b6000602082019050614f266000830184614cb2565b92915050565b60006020820190508181036000830152614f468184614cd0565b905092915050565b60006080820190508181036000830152614f688187614cd0565b90508181036020830152614f7c8186614cd0565b9050614f8b6040830185614cb2565b614f986060830184614cb2565b95945050505050565b600060a0820190508181036000830152614fbb8188614cd0565b90508181036020830152614fcf8187614cd0565b90508181036040830152614fe38186614cd0565b9050614ff26060830185614ca3565b614fff6080830184614cb2565b9695505050505050565b6000610120820190508181036000830152615024818c614cd0565b90508181036020830152615038818b614cd0565b9050818103604083015261504c818a614cd0565b905061505b6060830189614ca3565b6150686080830188614cb2565b61507560a0830187614cb2565b61508260c0830186614cb2565b61508f60e0830185614cb2565b61509d610100830184614ebb565b9a9950505050505050505050565b60006101408201905081810360008301526150c6818d614cd0565b905081810360208301526150da818c614cd0565b905081810360408301526150ee818b614cd0565b90506150fd606083018a614ca3565b61510a6080830189614cc1565b61511760a0830188614ebb565b61512460c0830187614cb2565b61513160e0830186614cb2565b61513f610100830185614cb2565b61514d610120830184614cb2565b9b9a5050505050505050505050565b6000610100820190508181036000830152615177818b614cd0565b9050818103602083015261518b818a614cd0565b905061519a6040830189614ebb565b81810360608301526151ac8188614cd0565b905081810360808301526151c08187614cd0565b90506151cf60a0830186614ebb565b6151dc60c0830185614ebb565b6151e960e0830184614cb2565b9998505050505050505050565b6000602082019050818103600083015261520f81614d3a565b9050919050565b6000602082019050818103600083015261522f81614d5d565b9050919050565b6000602082019050818103600083015261524f81614d80565b9050919050565b6000602082019050818103600083015261526f81614da3565b9050919050565b6000602082019050818103600083015261528f81614dc6565b9050919050565b600060208201905081810360008301526152af81614de9565b9050919050565b600060208201905081810360008301526152cf81614e0c565b9050919050565b600060208201905081810360008301526152ef81614e2f565b9050919050565b6000602082019050818103600083015261530f81614e52565b9050919050565b6000602082019050818103600083015261532f81614e98565b9050919050565b600060208201905061534b6000830184614ebb565b92915050565b600061535b61536c565b905061536782826154eb565b919050565b6000604051905090565b600067ffffffffffffffff82111561539157615390615621565b5b61539a82615650565b9050602081019050919050565b600081519050919050565b600081905092915050565b600082825260208201905092915050565b600081905092915050565b60006153e48261545b565b91506153ef8361545b565b9250826153ff576153fe615594565b5b828204905092915050565b60006154158261543b565b9050919050565b60008115159050919050565b600081905061543682615896565b919050565b600073ffffffffffffffffffffffffffffffffffffffff82169050919050565b6000819050919050565b600061547082615428565b9050919050565b82818337600083830152505050565b60005b838110156154a4578082015181840152602081019050615489565b838111156154b3576000848401525b50505050565b600060028204905060018216806154d157607f821691505b602082108114156154e5576154e46155f2565b5b50919050565b6154f482615650565b810181811067ffffffffffffffff8211171561551357615512615621565b5b80604052505050565b60006155278261545b565b91507fffffffffffffffffffffffffffffffffffffffffffffffffffffffffffffffff82141561555a57615559615565565b5b600182019050919050565b7f4e487b7100000000000000000000000000000000000000000000000000000000600052601160045260246000fd5b7f4e487b7100000000000000000000000000000000000000000000000000000000600052601260045260246000fd5b7f4e487b7100000000000000000000000000000000000000000000000000000000600052602160045260246000fd5b7f4e487b7100000000000000000000000000000000000000000000000000000000600052602260045260246000fd5b7f4e487b7100000000000000000000000000000000000000000000000000000000600052604160045260246000fd5b6000601f19601f8301169050919050565b7f4f72646572206e6f742066756c66696c6c656400000000000000000000000000600082015250565b7f5472616e73616374696f6e204661696c65642e2043616e6e6f7420526567697360008201527f7465720000000000000000000000000000000000000000000000000000000000602082015250565b7f427579657220416c726561647920457869737400000000000000000000000000600082015250565b7f45746820416d6f756e74204e6f742042616c616e636564000000000000000000600082015250565b7f43617274204e6f7420466f756e642c20506c6561736520496e697469616c697a60008201527f6520436172742046697273740000000000000000000000000000000000000000602082015250565b7f4361727420697320656d70747900000000000000000000000000000000000000600082015250565b7f50726f64756374204e6f7420466f756e64000000000000000000000000000000600082015250565b7f457363726f77205472616e73616374696f6e204661696c65642e2043616e6e6f60008201527f742050726f63656564205769746820436865636b6f7574000000000000000000602082015250565b7f3020457468657273000000000000000000000000000000000000000000000000600082015250565b50565b7f53656c6c657220497320496e616374697665204f72204e6f742043726561746560008201527f6400000000000000000000000000000000000000000000000000000000000000602082015250565b600481106158a7576158a66155c3565b5b50565b6158b38161540a565b81146158be57600080fd5b50565b6158ca8161541c565b81146158d557600080fd5b50565b6158e18161545b565b81146158ec57600080fd5b5056fea264697066735822122072022243bdb4b4ca87657c28ff134151f4fd379e6ce64ef21443faf0b03c9bef64736f6c63430008040033",
  "linkReferences": {
    "contracts/Libraries/Seller.sol": {
      "Seller": [
        {
          "length": 20,
          "start": 9813
        }
      ]
    }
  },
  "deployedLinkReferences": {
    "contracts/Libraries/Seller.sol": {
      "Seller": [
        {
          "length": 20,
          "start": 9439
        }
      ]
    }
  }
}